S01200005465614D616368696E652E7372656343
S1130000DBC100000AC2000008C2000006C20000F2
S113001004C2000002C2000000C20000FEC10000D1
S1130020FCC10000FAC10000F8C10000F6C10000E4
S1130030F4C100000C94F514F0C10000EEC10000FE
S1130040ECC10000EAC10000E8C10000E6C1000004
S1130050E4C10000E2C10000E0C100000C94442FA0
S1130060DCC100000C94A62C0C94DC2CD6C100003E
S1130070D4C10000D2C10000D0C10000CEC1000034
S1130080CCC10000CAC10000C8C10000C6C1000044
S1130090C4C10000C2C10000C0C10000BEC1000054
S11300A0BCC10000BAC10000B8C10000B6C1000064
S11300B0B4C10000B2C10000B0C10000AEC1000074
S11300C0ACC10000AAC10000A8C10000A6C1000084
S11300D0A4C10000A2C10000A0C100009EC1000094
S11300E09CC100005B047E049C04AD04CD04EA04BE
S11300F0650603058705AC05B5050F0632065006EF
S11301006D0DAF0D730D760D790D7F0DAF0DAF0D28
S1130110840DAF0D870D8C0DAF0D910D960DAF0DA8
S1130120AF0D9B0DA00DA50DAF0DAF0DAA0D2A1B94
S1130130331B3E1B471B531B691B721B7E1B961BE9
S1130140A21BAE1BBA1B5E226E2271227322762280
S1130150792298228722152817283028332819282D
S11301601B281D28212826282B2837283C287F30A7
S11301708230713075307B30B93086308A309030BF
S1130180943098309E30A230A630B930AC30B030C4
S1130190B430005EBCE2613FDD83C29C7E20A3FDDF
S11301A01F419DC3217FFCA2401E5F01E3BD3E6051
S11301B082DC237D9FC1421CFEA0E1BF5D0380DE83
S11301C03C62BEE0025CDF81633D7C22C09E1D4335
S11301D0A1FF4618FAA427799BC584DA3866E5BBE3
S11301E05907DB856739BAE406581947A5FB782611
S11301F0C49A653BD987045AB8E6A7F91B45C69843
S11302007A24F8A6441A99C7257B3A6486D85B05F4
S1130210E7B98CD2306EEDB3510F4E10F2AC2F71A2
S113022093CD114FADF3702ECC92D38D6F31B2ECD0
S11302300E50AFF1134DCE90722C6D33D18F0C5202
S1130240B0EE326C8ED0530DEFB1F0AE4C1291CFB4
S11302502D73CA947628ABF517490856B4EA693762
S1130260D58B5709EBB536688AD495CB2977F4AA90
S11302704816E9B7550B88D6346A2B7597C94A14C2
S1130280F6A8742AC896154BA9F7B6E80A54D78974
S11302906B3500000A0B02090C0D0E08070304015C
S11302A0000000000000000000000000000000004A
S11302B00000000000000000000000000000121117
S11302C0100000000000000000000000000000001A
S11302D000000000000000000102102020080810A7
S11302E020401020408002010201080402010102A2
S11302F0040810204080804020100804020180047B
S113030002018040201008040201080402010102D5
S113031004081020408001020408102040800505D4
S11303200505070508080808020202020A0A080867
S11303300404040401010101010101010303030395
S113034003030303040707070C0C0C0C0C0C0C0C24
S11303500202020206060606060606060B0B0B0B35
S11303600B0B0B0B000020002300260029002C009F
S11303702F00320000010000030106010901000002
S11303802200250028002B002E0031003400020139
S11303900000050108010B010000210024002700D2
S11303A02A002D0030003300010100000401070180
S11303B00A0156110E2D5A1111241FBECFEFD1E29E
S11303C0DEBFCDBF00E00CBF1AE0A0E0B2E0E0EE7B
S11303D0FAE600E00BBF02C007900D92A630B10709
S11303E0D9F72AE0A6E0BAE001C01D92AB3BB20700
S11303F0E1F711E0CBEDD1E000E006C0219701095F
S1130400802FFE010E943B33C93DD10780E00807DD
S1130410A9F70E943C2D0C945F35F2CD81E008953C
S113042022E232E0FC013183208313821282089598
S1130430CF93DF9322E232E0FC0131832083C28137
S1130440D381209741F0CE010E947418CE01DF9130
S1130450CF910C94492DDF91CF9108950F931F9361
S1130460CF93DF93EC018A819B81892B49F486E049
S113047090E00E94482D8C010E946A181B830A8315
S11304808A819B81DF91CF911F910F910895CF9322
S1130490DF93EC010E943C1C8AE292E099838883FA
S11304A0DF91CF910895CF93DF93EC0160E070E08A
S11304B08C819D810E94691964EF71E080E090E075
S11304C00E94BF2F60E070E08C819D810E943E19E4
S11304D081E0DF91CF910895E6DFFFCFFC018481B5
S11304E095810E94D11826E0969587952A95E1F783
S11304F08170089508950F931F93CF93DF938C0118
S11305008EE090E00E94482DEC0168E00E943916CC
S1130510F801D783C68383E190E00E94482DEC0163
S1130520F801668177815DD7F801D187C087CE0154
S11305300E94DC0A81E0DF91CF911F910F91089511
S1130540CF93DF93EC010E943C1C8AE492E09983F0
S113055088831F821E8219861886DF91CF910895A1
S11305602AE432E0FC01318320830C944D1CCF93A8
S1130570DF93EC01888599850E949C0B6EE272E002
S113058081E19AE00E94972D60E0888599850E9418
S1130590280CAB01BC0122E030E081E19AE00E942A
S11305A0432F65EF79E081E19AE0DF91CF910C94DC
S11305B0972DCF93DF93EC018C819D81662339F0D5
S11305C061E070E00E946919CE01D1DF04C061E0EE
S11305D070E00E943E1981E0DF91CF910895EC0113
S11305E08C819D810E94D11893FF0FC061E070E05F
S11305F08C819D810E946919CE01B9DF8C819D8116
S11306000E94D11893FDFACFEBCF60E0CE01D1DF89
S11306108C819D810E94D11893FFFACFE1CFFC0118
S113062084819581662329F062E070E00E94691953
S113063004C062E070E00E943E1981E00895CF9307
S1130640DF93EC01888599850E949C0B60E0888586
S11306509985DF91CF910C94280CEC018C819D81BC
S11306600E94D11893FF0DC062E070E08C819D81DF
S11306700E9469198C819D810E94D11893FDFACF43
S1130680EDCF60E0CE01CBDF8C819D810E94D1183B
S113069093FFFACFE3CFFC0113A2168A80E00895FA
S11306A0CF93DF93EC0160E08F89988D82DF60E067
S11306B08F89988DB4DF8D8D9E8D0E9425118F8D2D
S11306C098A10E94A111898D9A8D14DF8B8D9C8D28
S11306D0DF91CF9120C6CF93DF93EC018F89988D62
S11306E0AEDF68AF79AF8AAF9BAF1CA61DA61EA66E
S11306F01FA688A599A5AAA5BBA5880F991FAA1FFF
S1130700BB1F88AB99ABAAABBBAB1CAA1DAA1EAA84
S11307101FAA6EE472E081E19AE00E94972D48A935
S113072059A96AA97BA92AE030E081E19AE00E94F4
S1130730302E65EF79E081E19AE00E94972D83E005
S11307408BA31E8A80E0DF91CF910895CF92DF9230
S1130750FF920F931F93CF93DF93CDB7DEB76397C9
S11307600FB6F894DEBF0FBECDBF8C01CE0101964B
S11307706C010E94CC10D8019296DC92CE92919793
S11307808C859D85092E000CAA0BBB0BF80180A754
S113079091A7A2A7B3A7D80112968D919C91139704
S11307A05DDE0E94D11893FFF6CFD801ED91FC9144
S11307B00280F381E02DC8011995F82E811107C03C
S11307C0D801ED91FC910480F581E02DF4CFC601B0
S11307D00E94971081E0B2E0FB1280E063960FB6AE
S11307E0F894DEBF0FBECDBFDF91CF911F910F9163
S11307F0FF90DF90CF900895FC01108E178A128E1F
S1130800118E148E138E168E158E10A2178E12A2B0
S113081011A213A214A615A616A617A681E090E0AD
S1130820A0E0B0E080A791A7A2A7B3A710AA11AA3D
S113083012AA13AA14A215A216A217A210AE11AEE0
S113084012AE13AE14AA15AA16AA17AA0895CF9326
S1130850DF93EC010E94FD168FE094E09983888376
S1130860CE01DF91CF91C8CFFC0172A361A3FB013C
S113087043855485052E000C660B770BFC0140A7BD
S113088051A762A773A70895CF92DF92EF92FF92C8
S11308900F931F93CF93DF93FC0143A150E04E309D
S11308A0510508F012C2EC01FA018827EE58FF4FF7
S11308B08F4F0C943B3360E672E081E19AE00E9432
S11308C0972D8B8D9C8D01D560E08F89988D71DE7D
S11308D060E08F89988DA3DE8F8D98A10E947C1192
S11308E081E08BA300E110E020E030E048E853E130
S11308F060E070E0CE010E941E17E7C18F8D98A1C1
S11309000E94A711882309F4E0C169E772E081E13C
S11309109AE00E94972D8D8D9E8D0E94FF1001E11B
S113092010E020E030E048EF5AE260E070E0CE01F1
S11309300E941E1782E0B2C18D8D9E8D0E942C11E3
S1130940882309F4C2C165E972E081E19AE00E945A
S1130950972DCE010E944017B6C16BEA72E081E187
S11309609AE00E94972DE9A1FAA18081811104C027
S11309708D8D9E8D0E94121161E08F89988D19DEF4
S113098001E110E020E030E048EF5AE260E070E07E
S1130990CE010E941E1784E081C18D8D9E8D0E9420
S11309A03711882309F491C16EEC72E081E19AE079
S11309B00E94972D898D9A8D76DD02E110E020E06A
S11309C030E048EB5BE060E070E0CE010E941E176F
S11309D085E064C1898D9A8D81DD882309F475C110
S11309E069EE72E081E19AE00E94972D03E110E044
S11309F020E030E040E45DE063E070E0CE010E947E
S1130A001E1787E04BC18F89988D19DE6B017C011D
S1130A100E948E2F0CA91DA92EA93FA908571C4E70
S1130A202F4F3F4F0617170728073907D0F46FEFEA
S1130A3072E081E19AE00E94972D22E030E0B70154
S1130A40A60181E19AE00E94432F65EF79E081E1FC
S1130A509AE00E94972D0E948E2F6CAB7DAB8EABDB
S1130A609FAB20E030E040EA50E468AD79AD8AAD58
S1130A709BAD0E94B0299B01AC01C701B6010E9445
S1130A80A22A181654F020E030E046E952E4C701E7
S1130A90B6010E94A22A18165CF404E110E020E0DA
S1130AA030E040EE53E964E070E0CE010E941E178E
S1130AB020E030E040EA52E4C701B6010E94A22AD5
S1130AC018160CF002C163E173E081E19AE00E9420
S1130AD0972D60E08F89988D6CDD8B8D9C8D08D46B
S1130AE068EE73E080E090E00E94BF2F61E08F89A0
S1130AF0988D95DD05E110E020E030E040E355E716
S1130B0060E070E0CE010E941E1788E0C7C08B8DA4
S1130B109C8D14D4882309F4D8C06CE273E081E17D
S1130B209AE00E94972D8B8D9C8DCFD360E08F89A6
S1130B30988D75DD06E110E020E030E048E853E1EF
S1130B4060E070E0CE010E941E17E9A1FAA1808145
S1130B508111A3C089E0A2C08B8D9C8DE3D388232F
S1130B6009F4B3C063E473E068C08F8D98A10E9458
S1130B70B711882309F4A9C06AE573E081E19AE01A
S1130B800E94972D8F8D98A10E947C118CA59DA504
S1130B90AEA5BFA50196A11DB11D8CA79DA7AEA7AB
S1130BA0BFA762E773E081E19AE00E94972D4CA50C
S1130BB05DA56EA57FA52AE030E081E19AE00E9460
S1130BC0302E65EF79E081E19AE00E94972D00E1F3
S1130BD010E020E030E048E853E160E070E0CE014E
S1130BE00E941E174CA55DA56EA57FA588A999A98D
S1130BF0AAA9BBA9481759076A077B0774F40E947E
S1130C008E2FDC01CB018C509E4FAF4FBF4F8CA376
S1130C109DA3AEA3BFA38BE041C08CE03FC00E9464
S1130C208E2FCCA0DDA0EEA0FFA0C616D706E80646
S1130C30F90608F04AC06FE773E081E19AE00E9488
S1130C40972D8F8D98A10E948E1100E110E020E075
S1130C5030E048E853E160E070E0CE010E941E17E6
S1130C608AE01CC08F8D98A10E94A711882369F186
S1130C706CE973E081E19AE00E94972D8D8D9E8D41
S1130C800E94FF1001E110E020E030E048EF5AE25A
S1130C9060E070E0CE010E941E178DE08BA315C0AA
S1130CA08D8D9E8D0E942C11882379F067EB73E063
S1130CB081E19AE00E94972DCE010E944017E9A19C
S1130CC0FAA181E0818382E001C080E0DF91CF91CD
S1130CD01F910F91FF90EF90DF90CF900895CF93E5
S1130CE0DF93EC018E89813059F1823049F1CE01D4
S1130CF00E945817811105C0CE01C6DD8130F9F478
S1130D0016C06CEC73E081E19AE00E94972D4E8549
S1130D105F85688979892AE030E081E19AE00E9460
S1130D20092E65EF79E081E19AE00E94972DE88130
S1130D30F9810680F781E02DCE01199581E08E8B33
S1130D40DF91CF9108950F931F93CF93DF93EC011D
S1130D508A819B81892B31F46BED73E081E19AE008
S1130D600E94B22DCE010E9414178AE090E00E94E6
S1130D70482D8C016A817B81E3DB188F0F8B86E021
S1130D8090E00E94482D8C016A817B8180DB1A8F60
S1130D90098F86E090E00E94482D8C016A817B8156
S1130DA088D21C8F0B8F86E090E00E94482D8C0126
S1130DB06A817B810E94F3101E8F0D8F87E090E083
S1130DC00E94482D8C016A817B810E946F1118A3B7
S1130DD00F8F8F89988DDC01ED91FC910190F0814A
S1130DE0E02D1995898D9A8DDC01ED91FC9101908E
S1130DF0F081E02D19958B8D9C8DDC01ED91FC919A
S1130E000190F081E02D19958D8D9E8DDC01ED9181
S1130E10FC910190F081E02D19958F8D98A1DC0152
S1130E20ED91FC910190F081E02D199581E0DF9125
S1130E30CF911F910F910895FC01118E168A80E0C5
S1130E400895FC018789908D0DC10F931F93CF9353
S1130E50DF93EC0100E210E020E030E040E157E2F3
S1130E6060E070E00E941E1781E0898F1E8A80E096
S1130E70DF91CF911F910F910895CF93DF93EC01F0
S1130E808A819B81EBDA0E94D11893FFF9CFE88124
S1130E90F9810190F081E02DCE011995811106C0F0
S1130EA0E881F9810480F581E02DF6CF91E082306C
S1130EB009F090E0892FDF91CF910895CF93DF93CC
S1130EC0EC010E94FD168DE794E099838883188EC7
S1130ED01F8A198EDF91CF9108950F931F93CF939B
S1130EE0DF93EC01898D8130B1F028F0823049F133
S1130EF08330D9F50EC06BE174E081E19AE00E9481
S1130F00972D8F89988DA5D0882379F1CE010E94E1
S1130F10401782E02BC06CE374E081E19AE00E9408
S1130F20972D8F89988D7AD000E210E020E030E090
S1130F3040E157E260E070E0CE010E941E1782E0BB
S1130F4013C08F89988D85D0882379F069E574E082
S1130F5081E19AE00E94972DCE010E9440178C8176
S1130F609D810E94071F83E0898F80E0DF91CF91EC
S1130F701F910F910895CF93DF93EC018E898130F7
S1130F8011F1823001F1CE010E945817811103C082
S1130F90CE01A3DF17C06CEC73E081E19AE00E94FC
S1130FA0972D4E855F85688979892AE030E081E153
S1130FB09AE00E94092E65EF79E081E19AE00E94AF
S1130FC0972D81E08E8BDF91CF9108950F931F931E
S1130FD0CF93DF938C010E94141786E090E00E9467
S1130FE0482DEC01F801628173810CD0F801D08F97
S1130FF0C78BCE010E94301C81E0DF91CF911F91FD
S11310000F910895CF93DF93EC010E943C1C8DE86F
S113101094E099838883DF91CF910895CF93DF93F0
S1131020EC0163E070E08C819D810E94691964EF9A
S113103071E080E090E00E94BF2F63E070E08C815B
S11310409D810E943E1981E0DF91CF910895E6DFF2
S1131050FFCFFC01848195810E94D11892FB8827DF
S113106080F908950895FC013696409611921186F0
S1131070E817F907D9F70895CF93DF93EC010E949D
S11310803C1C8BEA94E099838883CE01DF91CF9155
S1131090EACFCF93DF93EC0160E08DE00E94BA3099
S11310A061E089E00E94BA30CE01DDDF81E0DF91AA
S11310B0CF910895AF92BF92CF92DF92EF92FF92B9
S11310C00F931F93CF93DF93CDB7DEB762970FB61D
S11310D0F894DEBF0FBECDBF6C0123E030E04DE0DD
S11310E069E0CE0101960E94021485E9E82E84E0AD
S11310F0F82E92E0A92EBB24B394F701019111912B
S11311007F01A801415051096CE070E0F60184812F
S113111095810E9490196EE170E080E090E00E9459
S1131120BF2FCE0101960E94C514F601E00FF11FF6
S1131130108AC99730F08681811108C0B682B08ABE
S113114005C08681882311F01682A08AF7EAEF167B
S1131150F4E0FF0691F662960FB6F894DEBF0FBE78
S1131160CDBFDF91CF911F910F91FF90EF90DF9052
S1131170CF90BF90AF900895FC01868587878585C1
S1131180868784858587838584878285838781850F
S1131190828780858187878180871782DF015096C7
S11311A07A961D92AE17BF07E1F70895CF93DF93A8
S11311B0CDB7DEB7C254D1090FB6F894DEBF0FBE67
S11311C0CDBF7C0150DFCE0101966BD3CE010196D9
S11311D074D7C7016FDF66EF79E0CE01CD960E9428
S11311E0E931570187E0A80EB11C01E010E0D12CD1
S11311F0F50181915F0120E08823F1F0A801B80195
S1131200CE010196A0D361E974E0CE01C7960E9495
S1131210E931BE01635C7F4FCE01C7960E943E3226
S1131220BC01CE01CD960E94FD31CE01C7960E942D
S11312308231DD24D3941CC04FEF5FEFB801CE019F
S1131240019681D363E974E0CE01C7960E94E93127
S1131250BE01635C7F4FCE01C7960E943E32BC0143
S1131260CE01CD960E94FD31CE01C7960E948231F7
S11312700F5F1F4F0A30110509F0BACF4D2D60E002
S1131280CE01019697D3CE0101960BD7BE01635CC4
S11312907F4F81E19AE00E94A22D68EE73E080E026
S11312A090E00E94BF2FCE01CD960E94823191CF53
S11312B00895CF93DF93EC010E943C1C84EF94E0EB
S11312C099838883DF91CF910895CF93DF93EC01C5
S11312D061E170E08C819D810E943E1960E170E0C3
S11312E08C819D810E94691981E0DF91CF910895DD
S11312F0CF93DF93EC0161E170E08C819D810E94CA
S1131300691960E170E08C819D810E94691981E016
S1131310DF91CF91089560E170E0FC0184819581B3
S11313200C943E19FC01848195810E94D11884E0BB
S1131330989F812D9927112481700895FC0184813F
S113134095810E94D11891FB882780F90895EC01BA
S113135001E08C819D810E94D11893FF09C0CE01C8
S1131360B4DF8C819D810E94D11893FDFACF24C0F3
S1131370CE01BEDFCE01E2DF182F10278C819D81C4
S11313800E94D11893FD18C0CE01D8DF882351F0F4
S11313901111F4CF6FEA74E081E19AE00E94972D75
S11313A011E0ECCF112351F36CEB74E081E19AE08E
S11313B00E94972D10E0E2CFCE01B4DF882319F00C
S11313C06DEC74E002C06EED74E081E19AE00E947D
S11313D0972D68EE73E080E090E00E94BF2FB9CFB4
S11313E00895FC0180EF99E0928B818B768365836D
S11313F01482108289E0818381E08283838308954B
S1131400CF93DF93EB0167E0CE010E94DE1691E0FB
S11314102F81281390E0892FDF91CF910895EF92C7
S1131420FF920F931F93CF93DF938C017B01D42FF3
S1131430FC01858196810E942D16C0E0B701F80158
S1131440858196810E945B16882351F0DC1305C0C8
S1131450B701C801D5DF811104C0CF5FDC1770F775
S113146080E0DF91CF911F910F91FF90EF9008954D
S1131470EF92FF920F931F93CF93DF938C01EB01B5
S11314807A01FC01858196810E942215882311F13D
S1131490BE01F801858196810E940D1640E06EEB35
S11314A0F801858196810E94BF15E701F9E0EF0EEE
S11314B0F11CF801858196810E94F2158993CE155D
S11314C0DF05B9F7F801858196810E94221591E024
S11314D0813009F090E0892FDF91CF911F910F9116
S11314E0FF90EF900895CF93DF93EA01C1DF882343
S11314F039F068E0CE010E94DE1691E028852813B9
S113150090E0892FDF91CF9108950F931F93CF938C
S1131510DF93EC018B018D819E810E942215B8011D
S11315208D819E810E940D1640E064EB8D819E8129
S11315300E94BF158D819E810E949415182F8D8164
S11315409E810E94221581E0111180E0DF91CF91EC
S11315501F910F910895CF93DF93CDB7DEB72997ED
S11315600FB6F894DEBF0FBECDBFFB012081203142
S1131570C9F0AE014F5F5F4FB6DF882389F08D81DC
S11315808F3361F020F48F3159F489E00CC08F352A
S113159019F08F3739F004C08BE005C08AE003C02E
S11315A080E001C08CE029960FB6F894DEBF0FBE30
S11315B0CDBFDF91CF910895EF92FF920F931F93C8
S11315C0CF93DF93CDB7DEB728970FB6F894DEBF7D
S11315D00FBECDBF8C01FC01858196810E942D1622
S11315E0F8011482FF24F394BE016F5F7F4FF8016A
S11315F0858196810E945B16882361F1BE016F5F2D
S11316007F4FC801FDDE882379F3F80180818111C1
S113161007C0BE016F5F7F4FC80177DF811117C01C
S1131620F801E180BE016F5F7F4FC80194DF8E1522
S113163018F4F801818105C0BE016F5F7F4FC801B6
S11316408ADFF801818384818F5F8483CDCFF801A1
S1131650F082E6CF28960FB6F894DEBF0FBECDBF5A
S1131660DF91CF911F910F91FF90EF900895FC01AE
S1131670858196810E94941591E0813009F090E073
S1131680892F08958F929F92AF92BF92CF92DF924B
S1131690EF92FF920F931F93CF93DF93EC01695066
S11316A0633048F4E62FF0E0EE0FFF1FE850FB4FE5
S11316B00081118102C00EEE12E08B818823E9F0D3
S11316C0888181111AC00E948E2F4B015C01680130
S11316D0110FEE08FF08CE01CADF811120C00E945D
S11316E08E2FDC01CB018C199D09AE09BF09881529
S11316F09905AA05BB0578F312C0B801110F880B30
S1131700990BDF91CF911F910F91FF90EF90DF9094
S1131710CF90BF90AF909F908F900C94BF2FDF918C
S1131720CF911F910F91FF90EF90DF90CF90BF90DA
S1131730AF909F908F900895CF93DF93EC018D81AC
S11317409E810E9422158D819E810E942A164881C5
S113175064E48D819E810E94BF158A81882329F0CB
S11317606981CE01DF91CF918DCFDF91CF91089523
S1131770FA01218130E0C901982F8827990F990F28
S1131780990F208148E0249F90011124282B392BA4
S1131790DB018C918031C1F4678170E08681AB01FB
S11317A0481B5109CA019695982F882797958795C4
S11317B00E94063360517109207F53E0220F331FCA
S11317C05A95E1F7260F371FC9010895EF92FF924A
S11317D00F931F93CF93DF93CDB7DEB729970FB63F
S11317E0F894DEBF0FBECDBF8C017B01AE014F5F0D
S11317F05F4F79DE882339F0AE014F5F5F4FB70149
S1131800C801B6DF02C080E894EE29960FB6F894BA
S1131810DEBF0FBECDBFDF91CF911F910F91FF901F
S1131820EF900895D3DF813824EE920764F0BC0171
S1131830990F880B990B0E94162A20E030E040E0B3
S11318405CE30C94A62A60E070E08EEF92EC0895BD
S11318500F931F93CF93DF93CDB7DEB728970FB6BF
S1131860F894DEBF0FBECDBF8C01462FBE016F5F63
S11318707F4FD5DD882331F0BE016F5F7F4FC801F4
S1131880D1DF04C060E070E08EEF92EC28960FB6D2
S1131890F894DEBF0FBECDBFDF91CF911F910F91A2
S11318A00895CF93DF93EC010E94321C8FE795E0FB
S11318B099838883DF91CF910895CF93DF93EC01CF
S11318C08FEF9FEF9F838E83998788879B878A8773
S11318D09D878C8745E050E060E270E0CE010E9673
S11318E00E9451351FA219A618A681E08AA71DAA35
S11318F0FE017396DE019B96A7968FEF9FEF81936F
S113190091931D92EC17FD07D1F7DF91CF910895C4
S1131910CF93DF93EC010E943C1C8FE795E0998301
S11319208883CE01DF91CF91C8CFCF93DF93EC01B1
S11319308FE795E099838883CE01BFDFCE01DF91E5
S1131940CF910C944D1CFB01EE0FFF1FE80FF91F04
S1131950548B438BFC01E60FF71F23A721E0FC0106
S113196022A70895FC01613071F038F0623041F033
S1131970633059F45587448708C05783468305C0AC
S11319805387428702C05187408781E082A7089528
S1131990FC01613049F030F0623041F0633039F4D9
S11319A0418B05C0468703C0478701C0408B81E057
S11319B082A70895FC0181E082A7613041F020F004
S11319C0623041F447A3089541A710A6089540A7A3
S11319D011A6089512A60895FC016930710509F451
S11319E04AC0D0F464307105F1F150F462307105ED
S11319F0B1F1B8F56130710509F049C02DEE48C068
S1131A0066307105A1F188F16730710591F1683094
S1131A107105E9F521E03CC06E307105A1F160F477
S1131A206B30710561F148F16C30710551F16D3025
S1131A30710569F521E62CC06D3F8FEF780729F118
S1131A4028F46F30710519F527E122C06E3F8FEF3E
S1131A507807C9F06F3F7F4FD1F42FEF19C023E40B
S1131A6017C029E415C02DE213C029E111C021E1FA
S1131A700FC02DEC0DC029E00BC025E009C021E307
S1131A8007C023E905C023E103C02FE701C021E813
S1131A9090E0442319F085A9882311F0822F08953A
S1131AA08FEF9FEF0895CF93C22F96DFCC2311F0D1
S1131AB0816002C08E7F9927CF910895862F90E090
S1131AC0FC01E154F109E731F10508F048C0882729
S1131AD0E058FF4F8F4F0C943B33442309F44EC01E
S1131AE082ED90E0089541113DC022C0411143C0F0
S1131AF04BC0442309F442C086E390E00895442394
S1131B00E9F186EF90E0089541112CC03DC04423D3
S1131B1061F18DEE90E00895442351F18FE390E05C
S1131B200895411134C083E790E00895411123C022
S1131B3086E790E00895442309F182EE90E0089549
S1131B404423F9F086E190E008954423E9F08EEF10
S1131B5090E0089541111BC087E390E008958FEF52
S1131B6090E008958EE390E0089587E690E008956C
S1131B7087E790E008958AE190E0089586E690E092
S1131B80089586EE90E008958CED90E008958BEC36
S1131B9090E00895CF93DF93EC0160E08BE00E9426
S1131BA0F6306D897E894CA5CE0116DF282F41E0E1
S1131BB06AE08CE00E944C316F89788D4DA5CE018E
S1131BC00BDF282F41E06AE08CE00E944C31698DE4
S1131BD07A8D4EA5CE0100DF282F41E06AE08CE02B
S1131BE00E944C316B8D7C8D4FA5CE01F5DE282FE4
S1131BF041E06AE08CE00E944C316D8D7E8D48A9F5
S1131C00CE01EADE282F41E06AE08CE00E944C31EC
S1131C106F8D78A149A9CE01DFDE282F41E06AE06B
S1131C208CE00E944C3169A17AA14AA9CE01D4DE8C
S1131C30282F41E06AE08CE00E944C316BA17CA12A
S1131C404BA9CE01C9DE282F41E06AE08CE00E9456
S1131C504C316DA17EA14CA9CE01BEDE282F41E0FE
S1131C606AE08CE00E944C316C857D8529A540E0BA
S1131C70CE0119DF282F41E06AE08CE00E944C314C
S1131C806A857B8528A540E0CE010DDF282F41E041
S1131C906AE08CE00E944C312FA181E028276885FE
S1131CA0798540E0CE01FFDE282F41E06AE08CE038
S1131CB00E944C3141E06989CE0100DF282F41E0C8
S1131CC06AE08CE00E944C3140E06989CE01F6DE86
S1131CD0282F41E06AE08CE00E944C3141E06889A1
S1131CE0CE01ECDE282F41E06AE08CE00E944C310A
S1131CF040E06889CE01E2DE282F41E06AE08CE012
S1131D000E944C3141E06F85CE01D8DE282F41E09E
S1131D106AE08CE00E944C3140E06F85CE01CEDE5B
S1131D20282F41E06AE08CE00E944C3141E06E854E
S1131D30CE01C4DE282F41E06AE08CE00E944C31E1
S1131D4040E06E85CE01BADE282F41E06AE08CE0E7
S1131D500E944C316E817F8140E0CE013DDE282F10
S1131D6041E06AE08CE00E944C3161E08BE00E942B
S1131D70F6301AA6DF91CF910895CF93DF93CDB7B4
S1131D80DEB72F970FB6F894DEBF0FBECDBF8C0120
S1131D908DE0EEE6F5E09E012F5F3F4F6901D9012A
S1131DA001900D928A95E1F71F861E86D8019796B9
S1131DB01C92979781E099968C93999798961C9288
S1131DC08AE0E82EF12C97E0292E312C26E0422ED1
S1131DD0512CF8011782168277247394D801169631
S1131DE02D913C9117972A30310598F7F601E20FAF
S1131DF0F31F80811E968C934901BFEF8B1A9B0AB7
S1131E00F60101900020E9F73197BF016C197D09B3
S1131E10C4010E94F232F601E80FF91F8081F80133
S1131E2087875901F2E0AF0EB11CF6010190002042
S1131E30E9F73197BF016C197D09C5010E94F2329F
S1131E40F601E80FF91F8081D80150968C93F901AF
S1131E503396D6010D900020E9F71197BD016C1956
S1131E607D09CF010E94F232D601A80FB91F8C91CF
S1131E70D80151968C93C701821B930BB7010E9422
S1131E80F232D80119969C938E931897C401B70126
S1131E900E94F232D8011B969C938E931A9789E084
S1131EA090E0821B930B1D969C938E931C9788E065
S1131EB090E0821B930BB7010E94F232D8019696F0
S1131EC09C938E939597C501B7010E94F232D80175
S1131ED094969C938E939397C101821B930BB701A5
S1131EE00E94F232D80192969C938E939197CF01DF
S1131EF0B7010E94F232F80190A3878FC201821BBE
S1131F00930BB7010E94F232968F858FC901049614
S1131F10B7010E94F232948F838F85E090E0821B98
S1131F20930BB7010E94F232928F818FC9010596FB
S1131F30B7010E94F232908F878B84E090E0821B7D
S1131F40930BB7010E94F232968B858B87A187256C
S1131F5087A381A5872581A780A5872580A7C80198
S1131F6019DE68EE73E080E090E00E94BF2FAE01BE
S1131F70425F5F4FBE01615F7F4FD80114968D9120
S1131F809C9115970E94E41840E150E06E8581E130
S1131F909AE00E94152E6EEF74E081E19AE00E94AF
S1131FA0972D40E150E06F8581E19AE00E94152E63
S1131FB065EF79E081E19AE00E94972D8F8580FD9D
S1131FC006C060E075E081E19AE00E94B22D8F8541
S1131FD081FD06C067E075E081E19AE00E94B22DC0
S1131FE08F8582FD06C060E175E081E19AE00E9480
S1131FF0B22D8F8583FD06C068E175E081E19AE02A
S11320000E94B22D8F8584FD06C062E275E081E1F5
S11320109AE00E94B22D8F8585FD06C06BE275E0C3
S113202081E19AE00E94B22D8F8586FD06C066E3A9
S113203075E081E19AE00E94B22D8F8587FD06C08C
S113204062E475E081E19AE00E94B22D8E8580FD04
S113205006C060E575E081E19AE00E94B22D8E85AC
S113206081FD06C069E575E081E19AE00E94B22D28
S11320708E8582FD06C064E675E081E19AE00E94E7
S1132080B22D8E8583FD06C067E675E081E19AE096
S11320900E94B22DF80186819781019697838683E9
S11320A09DCECF93DF93FC0122A5222319F0EC01EE
S11320B071DD1AA6DF91CF910895CF93DF93EC01E0
S11320C061E08AE00E94BA3061E08BE00E94BA309D
S11320D061E08CE00E94BA30CE01EFDBCE01E1DF9B
S11320E081E0DF91CF9108950F931F93CF93DF93F6
S11320F0EC018DA991E089278DAB9AA7CE01D1DFA0
S11321000E948E2F2DA9211105C00EE511E020E0BB
S113211030E004C00CEB12E020E030E0600F711FEF
S1132120821F931FDF91CF911F910F9108950895FE
S11321301F93CF93DF93EC0189899A891CE0189F40
S1132140B001199F700D1124FB01EA5FFD4F8081DE
S11321508883695F7D4FCE0102960E945835898934
S11321609A89189FF001199FF00D1124EA5FFD4F21
S1132170808591859A8789878681978198878F83BF
S1132180828593859C878B8781E0888B1F86198243
S1132190DF91CF911F910895FC01128A118A16864E
S11321A01586C6CFFC01128A118A76876587C0CF4F
S11321B0FC01218932891216130614F02F5F3F4F58
S11321C0FC01328B218BB4CFFC0121893289121698
S11321D013061CF42150310902C020E030E0FC0158
S11321E0328B218BA5CFCF93DF93EC010E943C1C53
S11321F087E895E099838883DF91CF910895CF9301
S1132200DF93EC0166E070E08C819D810E94691986
S113221067E070E08C819D810E94691981E0DF9103
S1132220CF910895CF93DF93EC0166E070E08C8149
S11322309D810E943E1967E070E08C819D810E941F
S1132240691981E0DF91CF91089567E070E0FC01A6
S1132250848195810C943E19FC0184819581A1D7D8
S113226024E0969587952A95E1F781700895FC01FD
S11322708481958196D725E0969587952A95E1F7EF
S113228081700895EC018C819D818BD793FF07C0E9
S1132290CE01E2DF8111F7CFCE01B1DFF4CFCE0161
S11322A0E6DF8111F0CFCE01BDDFEDCF87E09AE00C
S11322B00C94251A87E09AE00C94331A87E09AE08C
S11322C00E94E6198093060A08958091060A8823DD
S11322D029F087E09AE00E94CD1BF7CF0895CF93B1
S11322E0DF93EC010E943C1C8FE895E0998388837E
S11322F01E82DF91CF910895CF93DF93EC0168E0C4
S113230070E08C819D81E5D769E070E08C819D81CE
S1132310E0D781E08E83DF91CF910895CF93DF934F
S1132320EC0168E070E08C819D81A8D769E070E0E1
S11323308C819D81CED782E08E8381E0DF91CF9125
S1132340089569E070E0FC018481958197C7CF937B
S1132350DF93EC018C819D8124D787FF04C081E049
S11323609E81923009F480E0DF91CF910895CF935C
S1132370DF93EC018C819D8114D790FF04C081E030
S11323809E81913009F480E0DF91CF910895EC01B2
S11323908C819D8106D793FF0CC0CE01D8DF8111BB
S11323A002C0CE01A9DF8C819D81FBD693FDFBCFBA
S11323B0EFCFCE01DCDF811102C0CE01AFDF8C8113
S11323C09D81EFD693FFFBCFE3CF0895CF93DF93A7
S11323D0EC010E943C1C87E995E099838883DF9196
S11323E0CF910895CF93DF93EC0163E170E08C818A
S11323F09D816FD763E170E08C819D813FD762E15D
S113240070E08C819D8165D781E0DF91CF91089543
S1132410CF93DF93EC0164E170E08C819D8159D707
S113242064E170E08C819D8129D762E170E08C8148
S11324309D814FD781E0DF91CF910895E9DFFFCFF0
S113244062E170E0FC018481958118C7FC018481FC
S11324509581A7D6892F9927829586958770817053
S11324600895FC01848195819CD694FB882780F98A
S11324700895CF92DF92EF92FF92CF93DF93EC0116
S1132480E5DF811116C00E948E2F6B0128E7C21A66
S11324902CEED20ACE01A6DFE12CF12CCE01D6DF40
S11324A0811107C00E948E2F6C157D058E059F0536
S11324B0A8F3CE01CBDF882399F0CE01A9DF0E94D7
S11324C08E2F68517C4F6B01E12CF12C0E948E2FD2
S11324D06C157D058E059F05C8F3CE01B1DF81E043
S11324E0DF91CF91FF90EF90DF90CF900895FC01A2
S11324F0178A168A80E00895FC01828D938DA0CFFF
S1132500EC018A819B810E942E024BD693FFF9CF66
S1132510E881F9810190F081E02DCE0119958111B6
S113252006C0E881F9810480F581E02DF6CF83E1CE
S113253090E00E94482D8C012FDE198F088FE881CE
S1132540F9810280F381E02DCE011995811106C035
S1132550E881F9810480F581E02DF6CFFFCFCF9398
S1132560DF93EC01E88DF98D309731F08781908508
S1132570880F991F9D8F8C8F6BE975E081E19AE03C
S11325800E94972D6C8D7D8D4AE050E081E19AE0A8
S11325900E94752E65EF79E081E19AE00E94972D03
S11325A00E948E2F6E8F7F8F88A399A382E08F8BDA
S11325B01E8A80E0DF91CF910895FC01178A138E63
S11325C0128E158E148E168E178E10A211A20895D7
S11325D0CF93DF93EC0111D480E496E09983888350
S11325E0CE01DF91CF91E9CF0F931F93CF93DF9368
S11325F0EC011F89113001F130F0123061F1133018
S113260009F452C079C08A8D9B8D20DF811109C0E5
S113261065EB75E081E19AE00E94972D8A8D9B8D90
S1132620E1DE81E08F8B00E310E020E030E048E859
S113263053E160E070E05EC08A8D9B8D07DF8823E4
S113264009F45AC060ED75E081E19AE00E94972D8B
S1132650CE0116D427C08C8D9D8D18161906BCF496
S11326600E948E2F0E8D1F8D28A139A106171707E2
S11326702807390708F040C06BEE75E081E19AE065
S11326800E94972D8A8D9B8DC3DE83E02AC0CE01E4
S1132690F7D3E88DF98D118365E076E081E19AE066
S11326A00E94972D82E029C08A8D9B8DDADE8823D3
S11326B019F16DE176E081E19AE00E94972D8C8D0D
S11326C09D8D01979D8F8C8F0E948E2FDC01CB01F5
S11326D0805E9C4FAF4FBF4F8E8F9F8FA8A3B9A32F
S11326E082E08F8B01E310E020E030E040E757E127
S11326F060E070E0CE01A2D380E0DF91CF911F9122
S11327000F910895CF93DF93EC018E89813031F1DD
S1132710823021F1CE01CCD3811105C0CE0164DF1A
S11327208130D9F416C06CEC73E081E19AE00E9428
S1132730972D4E855F85688979892AE030E081E1AB
S11327409AE00E94092E65EF79E081E19AE00E9407
S1132750972D8A8D9B8D46DE81E08E8BDF91CF9104
S113276008951F93CF93DF93EC018A819B810E948C
S11327702E0217D593FFF9CFE881F9810190F081FA
S1132780E02DCE011995182F811106C0E881F98139
S11327900480F581E02DF5CF8A8D9B8D6ADE81E082
S11327A0123009F080E0DF91CF911F9108950F93CB
S11327B01F93CF93DF93EC0137D386E090E00E9420
S11327C0482D8C016A817B8101DE1B8F0A8FC80131
S11327D0FCDDE881F9810190F081E02DCE011995AD
S11327E0811106C0E881F9810480F581E02DF6CFDE
S11327F091E0823009F090E0892FDF91CF911F9111
S11328000F910895DC0170E0FB01E852FD4FE49163
S11328101496EC93149750E0FA01E852FD4FE491BA
S11328201596EC931597625E7C4FFB018491E82F1B
S1132830F0E0EE0FFF1FE258FC4F8591949117963C
S11328409C938E931697FA01E25EFC4FE491F0E0BC
S1132850EE0FFF1FEC59FC4F859194911B969C93AE
S11328608E931A97FB016491E62FF0E0EE0FFF1FA1
S1132870E856FC4F8591949119969C938E931897E2
S1132880C901253F314014F084EF91E049E3489FAA
S11328909001499F300D1124C9014C961D969C93BB
S11328A08E931C9708950F931F93CF93DF93EC019E
S11328B0E885F98590818C81892B8083EE81FF8165
S11328C090818C8180958923808384E090E00E94AC
S11328D0F82FEE81FF8190818C81892B80838AE09F
S11328E090E00E94F82FEE81FF8190818C81809589
S11328F089238083E885F98590818C81809589235B
S113290080830E949A2FDC01CB01805B994BAF4FEF
S1132910BF4F8E879F87A88BB98BEA85FB859081F3
S11329208D81892359F00E949A2F0E851F8528894D
S11329303989061717072807390778F7EA85FB85C9
S113294090818D81892369F40E949A2F0E851F85B9
S113295028893989061717072807390778F780E087
S11329600FC00E949A2F2C853D85DC01CB01820F7C
S1132970931FA11DB11D8E879F87A88BB98B81E002
S1132980DF91CF911F910F9108950F931F93CF93D0
S1132990DF93EC0188DF81110EC080E090E020C05D
S11329A00E949A2F0E851F852889398906171707D3
S11329B02807390790F3EA85FB8590818D81892367
S11329C079F70E949A2F2C853D85A901455051091C
S11329D02E853F85FA01E21BF30BCF01860F971F6B
S11329E0DF91CF911F910F9108951F920F920FB60F
S11329F00F9211240BB60F922F933F934F935F9333
S1132A006F937F938F939F93AF93BF93EF93FF93B2
S1132A10E0910F0AF091100A309709F01995FF918F
S1132A20EF91BF91AF919F918F917F916F915F9142
S1132A304F913F912F910F900BBE0F900FBE0F90AF
S1132A401F901895FF920F931F93CF93DF93FC0170
S1132A50F080C181D281F89489810F2D0095802363
S1132A60898378941DE7115029F182E090E00E9457
S1132A70F82F88818F21B9F3F8948A8180238A837F
S1132A8089818F298983789480EE91E00E94F82FC0
S1132A90F89489810823098386E490E00E94F82F42
S1132AA08881F82211E009F010E078948AE991E035
S1132AB00E94F82F812FDF91CF911F910F91FF90EA
S1132AC008951F93CF93DF93FC011081C181D281BC
S1132AD0812F809560FF12C0F8949A8189238A839C
S1132AE08981812B89838AE090E00E94F82F8A8172
S1132AF0182B1A83789487E390E011C0F8949A8194
S1132B0089238A838981812B898381E490E00E94CF
S1132B10F82F8A81182B1A83789485E090E0DF914E
S1132B20CF911F910C94F82F0F931F93CF93DF93A2
S1132B30FC010081C181D281F8948981802B898331
S1132B408A81102F109581238A8383E090E00E946C
S1132B50F82F8981182319838AE090E00E94F82FC6
S1132B60C881789485E390E00E94F82FC02381E027
S1132B7009F480E0DF91CF911F910F910895DF92C6
S1132B80EF92FF920F931F93CF93DF93EC01D62E16
S1132B90E42E08E010E0FF24F39461E08D2D8F21F2
S1132BA009F460E0CE018DDFFF0C01501109A9F793
S1132BB0E11010C0F894E981FA81918188818095AF
S1132BC089238183E981FA8192818881809589238F
S1132BD082837894DF91CF911F910F91FF90EF90B2
S1132BE0DF900895EF92FF920F931F93CF93DF939B
S1132BF07C0108E010E0C0E0D1E0C70195DF81115D
S1132C00CD2BDD0F01501109C1F78C2FDF91CF912E
S1132C101F910F91FF90EF900895EF92FF920F9301
S1132C201F93CF93DF938C017B0140E065E5A7DF21
S1132C30E70188E0E80EF11C699140E0C8019FDFDC
S1132C40CE15DF05C9F7DF91CF911F910F91FF904A
S1132C50EF90089540E06CEC92CFFC01138615864A
S1132C601486DC011B9633961E92AE17BF07E1F75C
S1132C7008951F93CF93DF93EC01162F60E0812F0B
S1132C800E94BA30612F70E0FB01E852FD4FE491DD
S1132C90E883FB01E25EFC4FE491F0E0EE0FFF1FDE
S1132CA0EC59FC4F859194919A838983CE01DF91ED
S1132CB0CF911F91D2CFBF92CF92DF92EF92FF922A
S1132CC00F931F93CF93DF93EC01D62EC72E8D85E0
S1132CD0811156C0CE01B6DE811104C01B861D864B
S1132CE01C8662C040E060EFCE0149DF01E0E12CC8
S1132CF0B12C11E0CE0118DFF82ECE0115DF91E0E2
S1132D00F91203C08130B1F433C02E2D30E0F81233
S1132D101BC08B85181738F4FE01E20FF31F838163
S1132D20802341F402C0181729F0F12C193058F40B
S1132D301C8709C0FE01EE0DF11D8381802B838366
S1132D40FF24F39409C0B12EFE01E20FF31F938117
S1132D50802F8095892383836F2DCE01B2DE1F5F80
S1132D60000F11F4E39401E087E08E1508F0C2CF60
S1132D70113430F0BB86B11012C081E08D870FC0D2
S1132D801B861D861C8680E0DE011396ED2DFC2D2E
S1132D902B969D919193AC17BD07D9F705C08B81F4
S1132DA0882371F381E0F0CFDF91CF911F910F91D0
S1132DB0FF90EF90DF90CF90BF900895DC0180E00A
S1132DC0615040F09D91E82FE927F0E0EE56FE4F68
S1132DD08491F6CF089581E00895FC01168217824C
S1132DE01086118612861386148615861686178613
S1132DF0108A118A82E0868B08950F931F93CF93D4
S1132E00DF93EC018B0180E596E099838883CE0102
S1132E10E4DF1D830C83C8016AD59B838A83DF9119
S1132E20CF911F910F910895CF93DF93EC01D5DFDC
S1132E3082E08E8B81E0DF91CF910895CF92DF9273
S1132E40EF92FF920F931F93CF93DF93EC016801EE
S1132E5079014E835F83688779870E948E2F6A8702
S1132E607B878C879D87CA8ADB8AEC8AFD8ADF91FF
S1132E70CF911F910F91FF90EF90DF90CF90089525
S1132E80CF93DF93EC011E821F82188619860E945D
S1132E908E2F6A877B878C879D8782E090E0A0E0F5
S1132EA0B0E08A8B9B8BAC8BBD8BDF91CF91089567
S1132EB0CF92DF92EF92FF92CF93DF93EC01CA841B
S1132EC0DB84EC84FD848E819F81A885B985C80E3E
S1132ED0D91EEA1EFB1E0E948E2FC616D706E806D0
S1132EE0F90640F48E819F81A885B985892B8A2BA8
S1132EF08B2B79F480E040E050E0BA014E875F8785
S1132F00688B798BDF91CF91FF90EF90DF90CF901A
S1132F1008954A895B896C897D8981E0EFCF0895A2
S1132F20FC01178A168A80E0089521E0FC01278BB2
S1132F30168A80E00895CF93DF93EC018A819B8108
S1132F400E942E022ED193FFF9CFE881F9810190DE
S1132F50F081E02DCE011995811106C0E881F98137
S1132F600480F581E02DF6CF91E0823009F090E005
S1132F70892FDF91CF910895CF93DF93EC013DDF4B
S1132F8088EB96E0998388831F8ADF91CF91089517
S1132F90CF93DF93EC018F89813089F068F0823020
S1132FA0C9F4E88DF98D83E081836FE676E081E1F1
S1132FB09AE00E94972D0CC0CE0162DF09C06CE537
S1132FC076E081E19AE00E94972D82E08F8B02C027
S1132FD082E001C080E0DF91CF910895CF93DF9329
S1132FE0EC018E89813009F18230F9F0CE0160DF85
S1132FF0811103C0CE01CCDF17C06CEC73E081E11A
S11330009AE00E94972D4E855F85688979892AE028
S113301030E081E19AE00E94092E65EF79E081E1D8
S11330209AE00E94972D81E08E8BDF91CF910895D5
S1133030CF93DF93EC018A819B81892B31F464E87F
S113304076E081E19AE00E94B22DCE01EDDEE881C6
S1133050F9810190F081E02DCE011995811106C00E
S1133060E881F9810480F581E02DF6CF91E082308A
S113307009F090E0892FDF91CF910895CF93DF93EA
S1133080EC01FAD384EE96E099838883DF91CF91A3
S11330900895CF93DF93EC0164EC76E081E19AE04C
S11330A00E94972D65E170E08C819D8112D166E1CB
S11330B070E08C819D810DD181E0DF91CF910895E5
S11330C0EC0162ED76E081E19AE00E94972DCE0159
S11330D0E0DFFFCFFC0111821082138212828FEF96
S11330E09FEF958384830895089561E08DE00E94A5
S11330F0BA3061E083E00E94BA3061E084E00E946B
S1133100BA3060E085E00E94BA3061E087E00E9456
S1133110BA3061E086E00E94BA3061E082E00E9449
S1133120BA3060E080E20E94BA3060E082E20C943F
S1133130BA3061E084E00E94F63081E090E00E94C1
S1133140F82F60E084E00C94F630EF92FF921F9326
S1133150CF93DF9310E0C7E0D0E0EE24E394F12CAA
S113316060E083E00E94F63082E090E00E94F82F55
S113317085E00E942431892B39F0C7010C2E01C04F
S1133180880F0A94EAF7182B61E083E00E94F63076
S1133190219730F7812FDF91CF911F91FF90EF900E
S11331A008950F931F93CF938C01C3DFC801CDDF24
S11331B0C82FC801CADF2C2F30E0A901582BCA013F
S11331C0CF911F910F910895CF92DF92EF92FF92CA
S11331D00F931F93CF93DF93EC016B017A01A9DF67
S11331E0CE01B3DF182FCE01B0DF082FCE01ADDF43
S11331F0F6018083CE01A9DFF7018083812F90E05F
S1133200902BDF91CF911F910F91FF90EF90DF9062
S1133210CF900895EF92FF920F931F93CF93DF9374
S1133220EC017B018A0160E086E00E94F6302F2DDC
S113323040E067E082E00E944C312E2D40E067E0E0
S113324082E00E944C31212F40E067E082E00E943E
S11332504C31202F40E067E082E00E944C3161E075
S113326086E00E94F630EA82FB8208831983DF91AC
S1133270CF911F910F91FF90EF900895FC01603161
S1133280710590F06051710981E090E002C0880FEF
S1133290991F6A95E2F78095909522813381822364
S11332A09323938382830FC081E090E002C0880F50
S11332B0991F6A95E2F78095909520813181822348
S11332C09323918380834081518162817381CF01F3
S11332D0A1CFFC016031710580F06051710981E07A
S11332E090E002C0880F991F6A95E2F7228133812A
S11332F0822B932B938382830DC081E090E002C0E4
S1133300880F991F6A95E2F720813181822B932BD4
S1133310918380834081518162817381CF017ACF0F
S11333202FE030E0062E02C0220F331F0A94E2F78A
S113333020953095DC01ED91FC9111972E233F23CC
S11333406F70772702C0440F551F6A95E2F7422B2E
S1133350532B11965C934E9312966D917C91139717
S113336059CF0F931F93CF93DF938C0180E20E9478
S11333702431EC0182E20E942431880F991F8C0FC2
S11333809D1FF80195838483DF91CF911F910F9145
S113339008950F931F93CF93DF938C0180E20E94D3
S11333A02431EC0182E20E942431880F991FC80F56
S11333B0D91F81E0F80124813581C217D30709F4AC
S11333C080E0DF91CF911F910F910895CF93DF9308
S11333D0EC0126E040E855E260E070E081E19AE02B
S11333E00E94212CCE010E942E027FDECE010E947B
S11333F02E02B7DF9D838C8368EE76E081E19AE04C
S11334000E94972D6C817D814AE050E081E19AE031
S11334100E94202E8C819D81892B39F4CE010E943B
S11334202E0265E070E02ADF06C0CE010E942E0263
S113343065E070E04EDFCE010E942E0264E070E091
S113344048DF81E0DF91CF910895CF93DF93EC01C2
S11334500E94100286E097E0998388831F821E826F
S1133460DF91CF91089526E037E0FC01318320837A
S11334700C941802EF92FF920F931F93CF93DF9354
S1133480CDB7DEB7AA970FB6F894DEBF0FBECDBF97
S11334907C01BC01CE0101961CD2C7010E942E0200
S11334A080DE8F709927F7019783868366EF76E035
S11334B081E19AE00E94972DF701668177814AE0C5
S11334C050E081E19AE00E94202E86E390E00E9481
S11334D0482D8C01B7010E94880CC8010E945D1020
S11334E044E560E0C8010E94C80C45E461E0C801FD
S11334F00E94C80C43E562E0C8010E94C80C44E580
S113350063E0C8010E94C80C42E050E061E0C801D9
S11335100E94B20CF7014681578162E0C8010E9403
S1133520B20CC8010E9451100115110531F0C801F7
S11335300E94950CC8010E94492DF701868197814C
S11335408130910551F038F08230910541F00397B4
S113355051F464E005C061E003C062E001C063E0CF
S1133560CE01019696D7CE01019698D1AA960FB6B0
S1133570F894DEBF0FBECDBFDF91CF911F910F91A5
S1133580FF90EF9008950F931F93CF93DF938C01D7
S11335900E942E0206DE8F709927D80117969C93FD
S11335A08E93169766EF76E081E19AE00E94972D5C
S11335B0F801668177814AE050E081E19AE00E9457
S11335C0202E86E390E00E94482DEC01B8010E9471
S11335D0880CCE010E945D1044E560E0CE010E949B
S11335E0C80C45E461E0CE010E94C80C43E562E0EA
S11335F0CE010E94C80C44E563E0CE010E94C80CD1
S113360041E050E061E0CE010E94B20CD801169670
S11336104D915C91179762E0CE010E94B20CCE01ED
S11336200E945110209731F0CE010E94950CCE01DA
S11336300E94492DD8011696ED91FC911797319768
S1133640EC30F10508F0A2C08827E956FF4F8F4FF0
S11336500C943B3386E090E00E94482DEC01B801C5
S11336600E94F31008C086E090E00E94482DEC010F
S1133670B8010E944702CE01F3D04BC087E090E02E
S11336800E94482DEC01B8010E946F11F4CF8AE02A
S113369090E00E94482DEC01B8010E94A002CE01E6
S11336A00E947B0236C08AE090E00E94482DEC0123
S11336B0B8010E94A002CE010E947B02CE010E94AA
S11336C02D03182F209709F462C0CE010E94B00286
S11336D059C086E090E00E94482DEC01B8010E9498
S11336E00208C9CF86E090E00E94482DEC01B801A1
S11336F00E945909CE010E9458090BC086E390E04C
S11337000E94482DEC01B8010E94880CCE010E9451
S11337105D10E881F9810280F381E02DCE011995D5
S1133720182F2097A1F1CE01B8D02CC08AE190E0E7
S11337300E94482DEC01B8010E943C08CE010E9471
S11337404908E7CF8DE290E00E94482DEC01B801D2
S11337500E94CE27CE010E94DB27DBCF86E090E0DB
S11337600E94482DEC01B8010E94E611CE010E948E
S1133770E511CFCF86E090E00E94482DEC01B8011E
S11337807DDC79CFCE010E94492D01C010E0812F4C
S1133790DF91CF911F910F910895EF92FF920F93B4
S11337A01F93CF93DF93CDB7DEB7AA970FB6F894E4
S11337B0DEBF0FBECDBF8C01BC01CE01019689D006
S11337C086E390E00E94482D7C01B8010E94880C99
S11337D0C7010E945D10E114F10431F0C7010E9499
S11337E0950CC7010E94492DF8018481958181308F
S11337F0910551F038F08230910549F0039769F44E
S113380067E008C060E006C0C801BDDE06C0C801AC
S113381031DE03C0CE0101963CD6C8010E942E02BF
S1133820B8DD8823D1F364EF71E080E090E00E947A
S1133830BF2FC8010E942E0294DDF8019583848372
S1133840CE0101962BD0AA960FB6F894DEBF0FBE18
S1133850CDBFDF91CF911F910F91FF90EF9008950D
S113386081E00895FC018EE097E0918380831382C8
S11338701282158214820895CF93DF93EC01CB0159
S11338802EE037E0398328837B836A830E942E02EB
S11338909D838C83DF91CF91089508950895CF93EC
S11338A0DF93FC011182108213821282158214822A
S11338B01782168211861086DC011C96B096EF01E1
S11338C01D921D921992AE17BF07D1F7DF91CF91C8
S11338D008950F931F93CF93DF93EC018B01DFDFE8
S11338E01B870A87DF91CF911F910F910895FC01E7
S11338F08285938508956A5F7F4F660F771F860FD1
S1133900971FDC01ED91FC91309729F081814813D8
S113391002C08785089580E008956A5F7F4F660F2F
S1133920771F860F971FDC01ED91FC91309721F0F2
S1133930978581E08927089580E008950F931F9368
S1133940CF93DF93EC0140E063E070E0D4DF182F05
S1133950882331F064E070E0CE01DFDF11E0182746
S113396040E062E070E0CE01C6DF882371F064E0DD
S113397070E0CE01D2DF811107C063E070E0CE01B8
S1133980CCDF91E0892701C080E0182B40E061E0A2
S113399070E0CE01B0DF082F8823A9F064E070E066
S11339A0CE01BBDF082F81110DC063E070E0CE01B2
S11339B0B4DF811108C062E070E0CE01AEDF01E047
S11339C0082701C000E0802F812BDF91CF911F9148
S11339D00F910895FC01A281B38156968C9188239E
S11339E069F0A481B58156968C91882339F00680BC
S11339F0F781E02D81E09689911101C080E008955E
S1133A000F931F93CF93DF93EB01CC0FDD1FC80FF0
S1133A10D91F0C851D850115110579F0F80125853F
S1133A203685FC01E20FF31F10A2C8010E94971013
S1133A30C8010E94492D1D861C86DF91CF911F91DC
S1133A400F910895FC01B19620E030E02F5F3F4FC5
S1133A502A30310519F041914111F8CFFC01E20FF0
S1133A60F31F41E040A3C9010895EF92FF920F9321
S1133A701F93CF93DF937C01EB01CC0FDD1FCE0DA1
S1133A80DF1D0C851D850115110531F0C8010E944B
S1133A909710C8010E94492DC701D4DF7C0183E13E
S1133AA090E00E94482D8C01B7010E94D2101D871E
S1133AB00C87C801DF91CF911F910F91FF90EF9078
S1133AC008956A5F7F4F660F771F860F971FFC016B
S1133AD0808191810895DC011E96AC01405E5F4FA8
S1133AE080E090E020E030E0ED91FD91309749F0E6
S1133AF06181643031F06785611102C09F0101C0AA
S1133B00CF01A417B50781F72115310509F0C901C3
S1133B100895AF92BF92CF92DF92EF92FF920F93EC
S1133B201F93CF93DF937C018B0162E177E081E106
S1133B309AE00E94972DD8011D966D917C911E9755
S1133B404AE050E081E19AE00E94752E65EF79E049
S1133B5081E19AE00E94972DF8018181843009F473
S1133B6042C0E7015701F0E1AF0EB11C78016801D2
S1133B708E859F85892B39F161E377E081E19AE0B5
S1133B800E94972DEE85FF85658576854AE050E095
S1133B9081E19AE00E94752E65EF79E081E19AE077
S1133BA00E94972DEE85FF8525853685D8011D96C3
S1133BB08D919C911E972817390719F481818430BF
S1133BC0F1F4EE84FF842296CA15DB0589F6C6015A
S1133BD0DF91CF911F910F91FF90EF90DF90CF90E5
S1133BE0BF90AF900895C701DF91CF911F910F91BE
S1133BF0FF90EF90DF90CF90BF90AF906CCF6EE3CB
S1133C0077E081E19AE00E94B22DF701658576851F
S1133C104AE050E081E19AE00E94752E65EF79E078
S1133C2081E19AE00E94972D6701CBCFAF92BF92BA
S1133C30CF92DF92EF92FF920F931F93CF93DF9374
S1133C407C018B016FE677E081E19AE00E94972D79
S1133C50D8011D966D917C911E974AE050E081E158
S1133C609AE00E94752E65EF79E081E19AE00E9466
S1133C70972DF8018181843009F442C0E701A096B0
S1133C806701FEE0CF0ED11C780158019A918A9108
S1133C90892B39F161E377E081E19AE00E94972D65
S1133CA0E881F981658576854AE050E081E19AE012
S1133CB00E94752E65EF79E081E19AE00E94972DCC
S1133CC0E881F98125853685D8011D968D919C91D1
S1133CD01E972817390719F481818430E9F4E880A4
S1133CE0F980CC15DD0591F6C501DF91CF911F91C7
S1133CF00F91FF90EF90DF90CF90BF90AF90089519
S1133D00C701DF91CF911F910F91FF90EF90DF904A
S1133D10CF90BF90AF90DFCE6DE877E081E19AE07D
S1133D200E94B22DF701658576854AE050E081E175
S1133D309AE00E94752E65EF79E081E19AE00E9495
S1133D40972D5701CCCFFC01B09629E030E08FEFDE
S1133D509FEFB291A291109741F01D964D915C9105
S1133D601E976417750709F4C9012150310989F7B1
S1133D700895FC01A08DB18D109741F050968C915F
S1133D805097882319F01F968C9101C080E0A68972
S1133D90B789109749F050969C915097992321F038
S1133DA01F969C91911181E0A489B589109749F0DF
S1133DB050969C915097992321F01F969C919111B4
S1133DC081E0A289B389109749F050969C9150974D
S1133DD0992321F01F969C91911181E0A089B189CA
S1133DE0109749F050969C915097992321F01F9673
S1133DF09C91911181E00684F785E02D309731F094
S1133E009089992319F09785911181E008950F9372
S1133E101F93CF93DF93EC010E8D1F8D01151105B8
S1133E2031F0C8010E949710C8010E94492D8C8D61
S1133E309D8D9F8F8E8F8A8D9B8D9D8F8C8F888D6E
S1133E40998D9B8F8A8F8E899F89998F888F8C8972
S1133E509D899F8B8E8B8A899B899D8B8C8B88896E
S1133E6099899B8B8A8B8E859F85998B888B1F86DE
S1133E701E8688819981DF91CF911F910F910C94B7
S1133E804A27EC01162F69017A018A819B81DC01A2
S1133E90ED91FC910680F781E02D19958C819D812F
S1133EA0DC01ED91FC910680F781E02D19958E815E
S1133EB09F81DC01ED91FC910680F781E02D19953D
S1133EC088859985DC01ED91FC910680F781E02DD0
S1133ED019958A859B850E942E0264E070E0CED9F4
S1133EE0C6018F709927960144E0359527954A9528
S1133EF0E1F7412F50E08C016DEB77E088819981E7
S1133F002AD4FFCFEC0188819981DC01ED91FC91E9
S1133F100190F081E02D1995811109C08881998162
S1133F20DC01ED91FC910480F581E02DF4CF8885CE
S1133F309985DC01ED91FC910190F081E02D1995BA
S1133F40182F811109C088859985DC01ED91FC91B8
S1133F500480F581E02DF3CF0E948E2F6B017C014C
S1133F60B0E1CB0EB7E2DB1EE11CF11C8881998124
S1133F70DC01ED91FC910280F381E02D19958130F3
S1133F8021F188819981DC01ED91FC910480F58116
S1133F90E02D19958A859B850E942E0202D993FFF4
S1133FA009C00E948E2FC616D706E806F90610F43B
S1133FB01230A1F088859985DC01ED91FC91048093
S1133FC0F581E02D1995182FDCCFE881F98126853C
S1133FD037854089518960E0CE0153DF888199811A
S1133FE055D788859985DC01ED91FC910280F38198
S1133FF0E02D19950E948E2F6B017C01B0E1CB0E50
S1134000B7E2DB1EE11CF11CD5CFDF92EF92FF92E9
S11340100F931F93CF93DF93EC018A819B81DC0183
S1134020ED91FC910190F081E02D1995D82E8C81B1
S11340309D81DC01ED91FC910190F081E02D1995B9
S1134040E82E8E819F81DC01ED91FC910190F0813D
S1134050E02D1995F82E88859985DC01ED91FC9168
S11340600190F081E02D1995082F88819981DC0158
S1134070ED91FC910190F081E02D1995182FDD2030
S113408049F0EE2099F0FF20E9F0002339F11123E3
S113409019F139C08A819B81DC01ED91FC91048086
S11340A0F581E02D1995D82EE1100AC08C819D81EF
S11340B0DC01ED91FC910480F581E02D1995E82E49
S11340C0F1100AC08E819F81DC01ED91FC91048086
S11340D0F581E02D1995F82E01110AC0888599857E
S11340E0DC01ED91FC910480F581E02D1995082FF8
S11340F01111C5CF88819981DC01ED91FC91048077
S1134100F581E02DBACFB1E0DB1203C0EA81FB8177
S113411005C081E0E81209C0EC81FD812685378560
S11341204089518960E0CE01ACDEA1E0FA1203C0FF
S1134130EE81FF81F3CF013019F4E885F985EECFE4
S1134140113019F4E881F981E9CF81E0DF91CF9151
S11341501F910F91FF90EF90DF900895CF93DF931D
S1134160EC0153DF882309F447C188819981DC017C
S1134170ED91FC910280F381E02D19958A859B8550
S11341800E942E0206D9811137C188819981DC01F0
S1134190ED91FC910480F581E02D1995A885B985F0
S11341A056968C915697813009F4B6C008F4ACC089
S11341B0823021F7CE01DDDD882301F3888D998DCE
S11341C0892B99F0EE81FF818689882371F062EC56
S11341D077E081E19AE00E94B22DE88DF98D808923
S11341E0882319F0878581119EC08E899F89892B28
S11341F099F0EC81FD818689882371F066EF77E080
S113420081E19AE00E94B22DEE89FF89808988239A
S113421019F087858111A4C08C899D89892B99F017
S1134220EA81FB818689882371F06AE278E081E182
S11342309AE00E94B22DEC89FD898089882319F0C7
S113424087858111AAC08A819B81DC01ED91FC9153
S11342500480F581E02D1995813049F4EA81FB81D0
S1134260268537854089518961E0CE010ADE8C813B
S11342709D81DC01ED91FC910480F581E02D19957F
S1134280813019F4EC81FD81EBCF8E819F81DC01BB
S1134290ED91FC910480F581E02D1995813019F49C
S11342A0EE81FF81DDCFCE0195DB882321F1CE01A4
S11342B045DB811115C041E064E070E0CE011BDBF9
S11342C081110EC042E065E070E0CE0114DB811183
S11342D007C043E066E070E0CE010DDB882359F0AF
S11342E08E8D9F8D892B39F464E070E0CE0115DB4F
S11342F0882309F46EC088859985DC01ED91FC91D1
S11343000480F581E02D39CFED91FC911197048063
S1134310F581E02DCD0131CF1E962D913D914D912A
S11343205C915197A1CF8181823009F05ECF60EE1C
S113433077E081E19AE00E94B22D888D998DEE811B
S1134340FF81918F808F8E819F81DC01ED91FC91A3
S11343500280F381E02D1995813009F046CFA0CF7A
S11343608181813009F058CF64E178E081E19AE0FD
S11343700E94B22D8E899F89EC81FD81918F808F5F
S11343808C819D81DC01ED91FC910280F381E02D13
S11343901995813009F040CF75CF8181811153CFB8
S11343A068E478E081E19AE00E94B22D6C897D890D
S11343B08A819B810E9434048A819B81DC01ED9176
S11343C0FC910280F381E02D1995813009F03BCFF7
S11343D045CF6EE578E081E19AE00E94B22D8881B4
S11343E0998154D588859985DC01ED91FC910280F1
S11343F0F381E02D19957FCFDF91CF9108950F932D
S11344001F93CF93DF93EC018AE290E00E94482D42
S11344108C01BE01CAD019830883C80183D58CE3FB
S113442090E00E94482D8C01BE010E9427041B834A
S11344300A83C8010E94A30682E290E00E94482DEC
S11344408C01BE010E94E8121D830C83C8010E94E6
S1134450D7138AE190E00E94482D8C01BE010E948E
S1134460BC171F830E83C8010E9418188AE190E0CC
S11344700E94482D8C01BE010E945E07198708879F
S1134480C8010E94E60781E0DF91CF911F910F914F
S11344900895FF920F931F93CF93DF93EC01F62EB1
S11344A0AEDF8F2D90E08830910508F041C0FC010B
S11344B08827ED55FF4F8F4F0C943B3381E19AE0F1
S11344C00E94842CCE014ADE26E040E855E260E0FA
S11344D070E081E19AE00E94212C2AC0CE013EDEE8
S11344E027C0CE010FDD8A819B8105C08C819D810F
S11344F002C08E819F81DC01ED91FC910284F385E1
S1134500E02DDF91CF911F910F91FF9019948C8131
S11345109D810E94B113F82E0FEF1FEF2FEF3FEF95
S11345204FEF5FEF6FE678E08881998114D101C085
S1134530F12C8F2DDF91CF911F910F91FF90089552
S11345400895FC01158E168A80E00895CF93DF93B9
S1134550EC0141E060E08F89988D0E94DA0C8F892C
S1134560988D0E94511082E08D8F1E8A80E0DF9129
S1134570CF910895CF93DF93EC01188E1F8A1A8E82
S1134580198E1C8E1B8E1F8E1E8E1D8E1AA21BA2B0
S11345901CA21DA218A219A20E948E2F6EA37FA393
S11345A088A799A7DF91CF910895CF93DF93EC016A
S11345B00E94FD1680EA98E099838883CE01DF91FA
S11345C0CF91D8CFCF93DF93EC014FEF5FEF60E053
S11345D08F89988D0E94B20C4FEF5FEF61E08F8955
S11345E0988D0E94B20C4FEF5FEF62E08F89988D37
S11345F00E94B20C4FEF5FEF63E08F89988D0E94A9
S1134600B20C40E260E08F89988D0E94C80C40E2B1
S113461061E08F89988D0E94C80C40E262E08F8926
S1134620988D0E94C80C40E263E08F89988D0E94A7
S1134630C80C40E062E08F89988DDF91CF910C9493
S1134640DA0CEF92FF920F931F93CF93DF9300D076
S11346501F921F92CDB7DEB7FC01778F668F8789D3
S1134660908D009709F46BC07B018F016115710572
S113467009F453C0FB012181243009F44EC045855F
S1134680568560E00E94B20CF7014781508561E0D5
S1134690F8018789908D0E94B20CF70141855285FB
S11346A062E0F8018789908D0E94B20CF70143857E
S11346B0548563E0F8018789908D0E94B20CB7019C
S11346C06E5F7F4FCE0101960E945835498160E0AC
S11346D0F8018789908D0E94C80C4A8161E0F80135
S11346E08789908D0E94C80C4B8162E0F80187890C
S11346F0908D0E94C80C4C8163E0F8018789908DED
S11347000E94C80CF701478581E0482762E0F80160
S11347108789908D0E94DA0C02C0C80153DFF8012A
S11347208789908D0F900F900F900F900F90DF91CD
S1134730CF911F910F91FF90EF900C9451100F9017
S11347400F900F900F900F90DF91CF911F910F91C9
S1134750FF90EF9008958F929F92AF92BF92CF9265
S1134760DF92EF92FF920F931F93CF93DF93EC01AD
S11347706B014A015901FB0101900020E9F73197CF
S11347807F01E61AF70A1E141F041CF4FB01408182
S113479001C040E260E08F89988D0E94C80CF2E06D
S11347A0EF16F1041CF0F601418101C040E261E022
S11347B08F89988D0E94C80CF3E0EF16F1041CF069
S11347C0F601428101C040E262E08F89988D0E9427
S11347D0C80CF4E0EF16F1041CF0F601438101C0AB
S11347E040E263E08F89988D0E94C80C20E0A40108
S11347F061E070E08F89988D0E94A30C20E0A501F0
S113480061E070E08F89988D0E94A30C20E0A801DC
S113481061E070E08F89988D0E94A30C8F89988D38
S1134820DF91CF911F910F91FF90EF90DF90CF9088
S1134830BF90AF909F908F900C945110EF92FF9285
S11348400F931F93CF93DF9300D01F921F92CDB786
S1134850DEB78C01DC015E968D919C915F97892B6C
S113486009F4DDC160E070E05B968D919C915C97EA
S1134870ADD38130B9F4F801668D778D848195814B
S113488048D9BC01C801DDDED8015E96ED91FC91EA
S11348905F974585568560E057968D919C91589712
S11348A00E94B20C61E070E0F801838D948D8ED388
S11348B08130D9F4D8015E966D917C915F971496FE
S11348C08D919C911597B2D9BC01C801BADED8016B
S11348D05E96ED91FC915F974585568560E057960D
S11348E08D919C9158970E94B20CD8015E96ED91DF
S11348F0FC915F978785811158C162E070E05B96F7
S11349008D919C915C9762D3813081F5F801868DFD
S1134910978D0E94D810D8015E966D917C915F9717
S11349206E5F7F4FCE0101960E945835498160E049
S1134930F8018789908D0E94C80C4A8161E0D801F2
S113494057968D919C9158970E94C80C4B8162E0B8
S1134950F8018789908D0E94C80C4C8163E0D801CE
S113496057968D919C9158970E94C80C63E070E013
S1134970F801838D948D2AD3813081F5D8015E9618
S11349808D919C915F970E94E410F801668D778D5C
S11349906E5F7F4FCE0101960E945835498160E0D9
S11349A0D80157968D919C9158970E94C80C4A81C2
S11349B061E0F8018789908D0E94C80C4B8162E008
S11349C0D80157968D919C9158970E94C80C4C81A0
S11349D063E0F8018789908D0E94C80C64E070E060
S11349E0D8015B968D919C915C97F0D28130A1F4B3
S11349F0D8015E96ED91FC915F97478150854330D5
S1134A00510511F04F5F5F4F5087478361E0F80114
S1134A108789908D0E94B20C65E070E0D8015B96A6
S1134A208D919C915C97D2D28130A1F4D8015E968D
S1134A30ED91FC915F97478150854115510511F027
S1134A40415051095087478361E0F8018789908D6F
S1134A500E94B20C66E070E0D8015B968D919C9147
S1134A605C97B4D28130A1F4D8015E96ED91FC91AB
S1134A705F97418552854330510511F04F5F5F4F79
S1134A805287418762E0F8018789908D0E94B20CB9
S1134A9067E070E0D8015B968D919C915C9796D20B
S1134AA08130A1F4D8015E96ED91FC915F97418528
S1134AB052854115510511F04150510952874187E2
S1134AC062E0F8018789908D0E94B20C68E070E082
S1134AD0D8015B968D919C915C9778D28130A1F43A
S1134AE0D8015E96ED91FC915F97438554854330E0
S1134AF0510511F04F5F5F4F5487438763E0F8011E
S1134B008789908D0E94B20C69E070E0D8015B96B1
S1134B108D919C915C975AD28130A1F4D8015E9614
S1134B20ED91FC915F97438554854115510511F032
S1134B30415051095487438763E0F8018789908D78
S1134B400E94B20C6AE070E0D8015B968D919C9152
S1134B505C973CD2813049F5D8015E96ED91FC9189
S1134B605F97878740E062E057968D919C915897B4
S1134B700E94DA0CD8015E96ED91FC915F976585F1
S1134B80768514968D919C911597DDD8D8015E9603
S1134B90ED91FC915F974585568520E0BC015796C1
S1134BA08D919C9158970E94A30C6BE070E0F801E2
S1134BB0838D948D0BD2813069F5D8015E96ED9189
S1134BC0FC915F976585768514968D919C911597D8
S1134BD0BAD87C0101970397E8F4D8015E96ED9169
S1134BE0FC915F97178641E062E057968D919C9106
S1134BF058970E94DA0CD8015E96ED91FC915F976C
S1134C004585568521E0B70157968D919C9158971B
S1134C100E94A30CF8018789908D0E945110D8013D
S1134C205B968D919C915C970F900F900F900F90D5
S1134C300F90DF91CF911F910F91FF90EF90BDC125
S1134C40EF92FF920F931F93CF93DF93EC018B01AD
S1134C508C819D810E94351D7C018F89988D053042
S1134C60110564F4F70111824585568521E0B801E8
S1134C700E94A30CB701CE01E4DC09C024E0F701D3
S1134C80218320E04DEF5FEFB8010E94A30C8F89D0
S1134C90988DDF91CF911F910F91FF90EF900C941D
S1134CA051100F931F93CF93DF93EC018B018C81F1
S1134CB09D810E94001D20E04FEF5FEFB8018F89B6
S1134CC0988D0E94A30C8C819D810E946B1DBC0158
S1134CD0CE01DF91CF911F910F91B3CC0F931F930E
S1134CE0CF93DF93EC018D8D823061F128F488231A
S1134CF059F08130B1F079C0843009F452C068F1C0
S1134D00853009F45EC071C064E778E081E19AE01F
S1134D100ED7CE010E9440178B8D9C8DBAD181E0B5
S1134D2063C064E878E081E19AE001D78B8D9C8DC3
S1134D30CDD1882329F08B8D9C8D3FD182E056C044
S1134D401D8E53C088A1811106C0898D9A8D0E9441
S1134D505A0881E089A383E047C088A181111FC05C
S1134D6089A18823E1F001E010E0E98DFA8DE00FDC
S1134D70F11F8089813019F4B801CE0161DFE98D1A
S1134D80FA8DE00FF11F8089823019F4B801CE0149
S1134D9088DF0F5F1F4F0A30110539F719A284E02D
S1134DA023C08B8D9C8D75D10E948E2FDC01CB018D
S1134DB0C296A11DB11D8AA39BA3ACA3BDA385E08C
S1134DC013C00E948E2F0AA11BA12CA13DA106177E
S1134DD017072807390748F48B8D9C8D77D18823D2
S1134DE0F1F2CE012BDD82E08D8F80E0DF91CF9157
S1134DF01F910F910895CF92DF92EF92FF921F932C
S1134E00CF93DF93EC011E890E948E2FCEA0DFA0EA
S1134E10E8A4F9A4C616D706E806F90620F48F8993
S1134E20988D009729F48E898150823040F425C0F2
S1134E300E9474106EA37FA388A799A7F4CFCE0114
S1134E400E945817811104C0CE0148DF182F14C0E6
S1134E506CEC73E081E19AE06AD64E855F856889DF
S1134E6079892AE030E081E19AE0D3D665EF79E0F0
S1134E7081E19AE05CD611E01E8B812FDF91CF9106
S1134E801F91FF90EF90DF90CF90089521E0FC01F7
S1134E9020A308950F931F93CF93DF938C01DC011C
S1134EA059968D919C915A97009711F00E94BC08D5
S1134EB0C1E0D0E0BE01F801848195810E94611DAA
S1134EC0FC01D80157968D919C915897309799F091
S1134ED03181343061F02785222329F021E03330F9
S1134EE019F020E001C021E04585568507C020E087
S1134EF04DEF5FEF03C020E04FEF5FEFBE010E9474
S1134F00A30CF8018789908D0E9451102196CA3014
S1134F10D10581F6D80190961C92DF91CF911F9113
S1134F200F9108950F931F93CF93DF93EC010E9489
S1134F30141786E390E0ACD58C016A817B810E94D2
S1134F40880C188F0F8BC8010E945D108AE190E0D5
S1134F509FD58C016A817B810E943C081A8F098F3E
S1134F60C8010E9449088DE290E092D58C016A81C3
S1134F707B8114D01C8F0B8FC8011DD081E0DF9181
S1134F80CF911F910F910895FC013696429611928C
S1134F901486118EE817F907D1F70895CF93DF939C
S1134FA0EC010E943C1C80EE99E099838883CE0139
S1134FB0DF91CF91E9CFE8CF0895FC0173964F9626
S1134FC021912487E817F907D9F70895FC01E60F22
S1134FD0F71F838990A1891721F0811104C081E012
S1134FE0089580E0089582E008950F931F93CF936E
S1134FF0DF931F921F92CDB7DEB78B011A821982FD
S1135000AE014F5F5F4FBE016E5F7F4FFC01848135
S113501095810E94E4180C30110598F5F801882751
S1135020E555FF4F8F4F0C943B338A811AC08A8118
S11350301BC08A811DC08A8120C08A8182958170AB
S113504021C08A8185FB882780F91CC08A8186FB60
S1135050882780F917C08A81881F8827881F12C073
S1135060898181700FC08981869581700BC0898187
S113507082FB882780F906C0898183FB882780F911
S113508001C080E00F900F90DF91CF911F910F919D
S11350900895EF92FF920F931F93CF93DF937C01B8
S11350A08C010A5F1F4FC0E0D0E0BE01C7019DDF45
S11350B0F80181938F012196CC30D105B1F7DF91AE
S11350C0CF911F910F91FF90EF900895CF92DF92AF
S11350D0FF920F931F93CF93DF936C018C010A5FB0
S11350E01F4FC0E0D0E0FF24F394BE01C6017DDF72
S11350F0F801858790810F5F1F4F8913F12C21964A
S1135100CC30D10591F78F2DDF91CF911F910F9165
S1135110FF90DF90CF900895EC01BBDF62E370E075
S113512080E090E02CD7CE01D1DFCE0146DF64E1F0
S113513070E080E090E023D7CE01ABDF62E370E063
S113514080E090E01CD7CE01C1DF60E070E0CE01CA
S11351503DDF813029F46CEA78E081E19AE002D500
S113516061E070E0CE0132DF813029F466EB78E053
S113517081E19AE0F7D462E070E0CE0127DF81306C
S113518029F462EC78E081E19AE0ECD463E070E029
S1135190CE011CDF813029F46EEC78E081E19AE0E5
S11351A0E1D464E070E0CE0111DF813029F46CEDCC
S11351B078E081E19AE0D6D465E070E0CE0106DFC4
S11351C0813029F467EE78E081E19AE0CBD466E09F
S11351D070E0CE01FBDE813029F464EF78E081E1F8
S11351E09AE0C0D467E070E0CE01F0DE813029F4AB
S11351F060E079E081E19AE0B5D468E070E0CE0146
S1135200E5DE813029F46EE079E081E19AE0AAD408
S113521069E070E0CE01DADE813029F46DE179E0F5
S113522081E19AE09FD46AE070E0CE01CFDE813064
S113523029F46EE279E081E19AE094D46BE070E0C5
S1135240CE01C4DE813029F464E379E081E19AE09F
S113525089D460E070E0CE01B9DE823029F46EE3D7
S113526079E081E19AE07ED461E070E0CE01AEDEC7
S1135270823029F469E479E081E19AE073D462E050
S113528070E0CE01A3DE823029F466E579E081E1A5
S11352909AE068D463E070E0CE0198DE823029F4AD
S11352A063E679E081E19AE05DD464E070E0CE01E8
S11352B08DDE823029F462E779E081E19AE052D40C
S11352C065E070E0CE0182DE823029F46EE779E099
S11352D081E19AE047D466E070E0CE0177DE823067
S11352E029F46CE879E081E19AE03CD467E070E06D
S11352F0CE016CDE823029F469E979E081E19AE03B
S113530031D468E070E0CE0161DE823029F468EACD
S113531079E081E19AE026D469E070E0CE0156DEBE
S1135320823029F468EB79E081E19AE01BD46AE0E9
S113533070E0CE014BDE823029F46AEC79E081E141
S11353409AE010D46BE070E0CE0140DE823009F0C8
S1135350ECCE61ED79E081E19AE004D4E6CE5058D8
S1135360BB27AA270ED0B4C0A5D030F0AAD020F015
S113537031F49F3F11F41EF49AC00EF4E095E7FB5C
S113538090C0E92FB6D080F3BA1762077307840779
S1135390950718F071F49EF5CEC00EF4E0950B2E2F
S11353A0BA2FA02D0B01B90190010C01CA01A00173
S11353B01124FF27591B99F0593F50F4503E68F1CE
S11353C01A16F040A22F232F342F4427585FF3CF0F
S11353D0469537952795A795F0405395C9F77EF4E0
S11353E01F16BA0B620B730B840BBAF09150A1F029
S11353F0FF0FBB1F661F771F881FC2F70EC0BA0FAF
S1135400621F731F841F48F4879577956795B79536
S1135410F7959E3F08F0B3CF9395880F08F099272E
S1135420EE0F979587950895E89409C097FB3EF48D
S113543090958095709561957F4F8F4F9F4F9923DD
S1135440A9F0F92F96E9BB279395F695879577955B
S11354506795B795F111F8CFFAF4BB0F11F460FF1B
S11354601BC06F5F7F4F8F4F9F4F16C0882311F073
S113547096E911C0772321F09EE8872F762F05C087
S1135480662371F096E8862F70E060E02AF09A9522
S1135490660F771F881FDAF7880F9695879597F917
S11354A0089597F99F6780E870E060E008959FEFA2
S11354B080EC089500240A941616170618060906A7
S11354C0089500240A941216130614060506089576
S11354D0092E0394000C11F4882352F0BB0F40F4FE
S11354E0BF2B11F460FF04C06F5F7F4F8F4F9F4F3E
S11354F0089557FD9058440F551F59F05F3F71F0C0
S11355004795880F97FB991F61F09F3F79F0879526
S11355100895121613061406551FF2CF4695F1DFAF
S113552008C0161617061806991FF1CF869571053F
S1135530610508940895E894BB2766277727CB0173
S113554097F9089566D008F48FEF08950BD0C0CF73
S1135550B1DF28F0B6DF18F0952309F0A2CFA7CF6A
S11355601124EACFC6DFA0F3959FD1F3950F50E045
S1135570551F629FF001729FBB27F00DB11D639F01
S1135580AA27F00DB11DAA1F649F6627B00DA11DA7
S1135590661F829F2227B00DA11D621F739FB00D4D
S11355A0A11D621F839FA00D611D221F749F3327BD
S11355B0A00D611D231F849F600D211D822F762F56
S11355C06A2F11249F5750408AF0E1F088234AF053
S11355D0EE0FFF1FBB1F661F771F881F915050409F
S11355E0A9F79E3F510570F05CCFA6CF5F3FECF367
S11355F0983EDCF3869577956795B795F795E7958B
S11356009F5FC1F7FE2B880F911D9695879597F99B
S11356100895990F0008550FAA0BE0E8FEEF16163F
S11356201706E807F907C0F012161306E407F50792
S113563098F0621B730B840B950B39F40A2661F006
S1135640232B242B252B21F408950A2609F4A140A9
S1135650A6958FEF811D811D08950E944435FC019C
S1135660918D228D892F90E0805C9F4F821B910940
S11356708F7399270895FC01918D828D981731F0CD
S1135680828DE80FF11D858D90E008958FEF9FEFD7
S11356900895FC01918D828D981761F0828DDF0150
S11356A0A80FB11D5D968C91928D9F5F9F73928F11
S11356B090E008958FEF9FEF089585E09DE2892B98
S11356C039F080E090E0892B19F09FD1811125C039
S11356D080E090E0892B41F080E090E0892B21F07C
S11356E00E94000081111CC080E090E0892B41F0F1
S11356F080E090E0892B21F00E940000811113C00A
S113570080E090E0892BA1F080E090E0892B81F08B
S11357100E94000081110AC008950E940000D8CFA1
S11357200E940000E1CF0E940000EACF0C94000028
S11357300895FC01848DDF01A80FB11DA35ABF4F4A
S11357402C91848D90E001968F739927848FA6897C
S1135750B7892C93A089B1898C9180648C93938DA3
S1135760848D981306C00288F389E02D80818F7D93
S113577080830895EF92FF920F931F93CF93DF934B
S1135780EC0181E0888F9B8D8C8D981305C0E8898E
S1135790F989808185FD23C0F62E0B8D10E00F5F03
S11357A01F4F0F731127E02E8C8DE8120BC00FB61C
S11357B007FCFACFE889F989808185FFF5CFCE010E
S11357C0B8DFF2CF8B8DFE01E80FF11DE35AFF4FD6
S11357D0F0820B8FEA89FB898081806207C0EE89A1
S11357E0FF896083E889F98980818064808381E00E
S11357F090E0DF91CF911F910F91FF90EF9008956A
S1135800CF93DF93EC01888D8823C1F0EA89FB896B
S1135810808185FD05C0A889B9898C9186FD0EC05B
S11358200FB607FCF5CF808185FFF2CFA889B9892F
S11358308C9185FFEDCFCE017CDFE8CFDF91CF9156
S11358400895CF92DF92EF92FF921F93CF93DF934D
S1135850EC016A017B01122FE889F98982E08083D7
S11358604115514E61057105A9F060E079E08DE3C1
S113587090E0A7019601DDD6DA01C9010197A109DB
S1135880B109B695A795979587959C01211580E157
S11358903807A0F0E889F989108260E874E88EE19D
S11358A090E0A7019601C5D6DA01C9010197A109C3
S11358B0B109B695A795979587959C01EC85FD85CB
S11358C03083EE85FF852083188EEC89FD89108353
S11358D0EA89FB89808180618083EA89FB898081F0
S11358E088608083EA89FB89808180688083EA8973
S11358F0FB8980818F7D8083DF91CF911F91FF9001
S1135900EF90DF90CF900895CF93DF93EC01E8817F
S1135910F9810284F385E02D1995EA89FB89808158
S11359208F7E8083EA89FB898081877F8083EA89EF
S1135930FB8980818F778083EA89FB8980818F7DD1
S113594080838A8D898FDF91CF9108951F920F9262
S11359500FB60F9211240BB60F922F938F939F9330
S1135960EF93FF93E091210AF091220A8081E09164
S1135970270AF091280A82FD12C0908180912A0A98
S11359808F5F8F7320912B0A821751F0E0912A0ABE
S1135990F0E0EF5EF54F958F80932A0A01C0808175
S11359A0FF91EF919F918F912F910F900BBE0F90CC
S11359B00FBE0F901F9018951F920F920FB60F9263
S11359C011240BB60F922F933F934F935F936F93D2
S11359D07F938F939F93AF93BF93EF93FF9381E153
S11359E09AE0A7DEFF91EF91BF91AF919F918F91C4
S11359F07F916F915F914F913F912F910F900BBECB
S1135A000F900FBE0F901F90189581E19AE027DE4A
S1135A1021E0892B09F420E0822F0895E1E1FAE0E6
S1135A201382128288EE93E0A0E0B0E08483958331
S1135A30A683B78388EE99E09183808385EC90E018
S1135A409587848784EC90E09787868780EC90E044
S1135A50918B808B81EC90E0938B828B82EC90E035
S1135A60958B848B86EC90E0978B868B118E128EAF
S1135A70138E148E08950895C6D2FDDF0E945E1120
S1135A80CDE5DBE20E9465112097E1F316DEFACF43
S1135A90FAC591C6CF92DF92EF92FF920F931F93B4
S1135AA0CF93DF936C017A018B01C0E0D0E0CE1577
S1135AB0DF0581F0D8016D918D01D601ED91FC9146
S1135AC00190F081E02DC6011995892B11F02196E2
S1135AD0EECF7E01C701DF91CF911F910F91FF900F
S1135AE0EF90DF90CF9008956115710579F0FB0177
S1135AF001900020E9F73197AF01461B570BDC01F9
S1135B00ED91FC910280F381E02D199480E090E006
S1135B100895DB0114964D915C9115976D917C91DC
S1135B20DC01ED91FC910280F381E02D1994DCCF2E
S1135B30DC01ED91FC910190F081E02D199464EF6A
S1135B4079E0D2CF0F931F93CF93DF93EC01E1DF82
S1135B508C01CE01F4DF800F911FDF91CF911F9153
S1135B600F9108950F931F93CF93DF93EC01BCDF44
S1135B708C01CE01E4DF800F911FDF91CF911F9143
S1135B800F9108958F929F92AF92BF92EF92FF92DE
S1135B900F931F93CF93DF93CDB7DEB7A1970FB6C3
S1135BA0F894DEBF0FBECDBF7C01FA01CB0119A270
S1135BB0223008F42AE08E010F5D1F4F822E912CB3
S1135BC0A12CB12CBF01A501940133D5F901CA015F
S1135BD0015011096A3010F4605D01C0695CD8019C
S1135BE06C93232B242B252B69F7B801C7017CDF89
S1135BF0A1960FB6F894DEBF0FBECDBFDF91CF9153
S1135C001F910F91FF90EF90BF90AF909F908F9056
S1135C1008952115310541F4DC01ED91FC910190C9
S1135C20F081E02D642F1994ADCF9A01462F50E0F6
S1135C3060E070E0EECF9A01AB0160E070E0E9CF84
S1135C400F931F93CF93DF93EC01F5DF8C01CE010B
S1135C5076DF800F911FDF91CF911F910F910895EF
S1135C60CF92DF92EF92FF920F931F93CF93DF9324
S1135C702115310581F4DC01ED91FC910190F08155
S1135C80E02D642FDF91CF911F910F91FF90EF9042
S1135C90DF90CF9019942A303105F1F477FF1BC0BF
S1135CA06A017B01EC016DE243DF8C014427552737
S1135CB0BA014C195D096E097F092AE0CE0162DF41
S1135CC0800F911FDF91CF911F910F91FF90EF9063
S1135CD0DF90CF9008952AE0DF91CF911F910F912B
S1135CE0FF90EF90DF90CF904DCF9A01AB01770FEB
