S01200005465614D616368696E652E7372656343
S113000061C2000090C200008EC200008CC20000D9
S11300108AC2000088C2000086C2000084C20000B8
S113002082C2000080C200007EC200007CC20000C8
S11300307AC200000C94711876C2000074C20000E9
S113004072C2000070C200006EC200006CC20000E8
S11300506AC2000068C2000066C200000C94AC359D
S113006062C200000C940E330C9444335CC2000052
S11300705AC2000058C2000056C2000054C2000018
S113008052C2000050C200004EC200004CC2000028
S11300904AC2000048C2000046C2000044C2000038
S11300A042C2000040C200003EC200003CC2000048
S11300B03AC2000038C2000036C2000034C2000058
S11300C032C2000030C200002EC200002CC2000068
S11300D02AC2000028C2000026C2000024C2000078
S11300E022C20000FA0430055B057705A705060661
S11300F086082A0614074E077807FB072E085C08B3
S1130100C70F0910CD0FD00FD30FD90F0910091045
S1130110DE0F0910E10FE60F0910EB0FF00F0910C5
S11301200910F50FFA0FFF0F091009100410D11B65
S1130130F01B111C371C7D1CE71C111D391D6A1D89
S1130140BC21C521CE21D721E321F92102220E228F
S11301501A2232223E224A225422A2284328532819
S113016063286528752885287D2E7F2E982E9B2E42
S1130170812E832E852E892E8E2E932E9F2EA42E95
S1130180E736EA36D936DD36E3362137EE36F2364F
S1130190F836FC36003706370A370E37213714375E
S11301A018371C3700407A10F35A00A0724E180911
S11301B00010A5D4E80000E87648170000E40B54CA
S11301C0020000CA9A3B000000E1F5050000809699
S11301D09800000040420F000000A08601000000CB
S11301E0102700000000E803000000006400000085
S11301F000000A00000000000100000000002C764E
S1130200D888DC674F0823DFC1DFAE59E1B1B79668
S1130210E5E3E453C63AE651997696E8E6C28426C5
S1130220EB898C9B62ED407C6FFCEFBC9C9F40F2A1
S1130230BAA56FA5F490055A2AF75C936B6CF9671D
S11302406DC11BFCE0E40D47FEF520E6B500D0EDE2
S1130250902E0300943577050080841E080000204A
S11302604E0A000000C80C333333330F986E1283E8
S11302701141EF8D2114893BE65516CFFEE6DB18BC
S1130280D1844B381BF77C1D901DA4BBE424203281
S113029084725E228100C9F124ECA1E53D27005E51
S11302A0BCE2613FDD83C29C7E20A3FD1F419DC350
S11302B0217FFCA2401E5F01E3BD3E6082DC237D02
S11302C09FC1421CFEA0E1BF5D0380DE3C62BEE034
S11302D0025CDF81633D7C22C09E1D43A1FF461862
S11302E0FAA427799BC584DA3866E5BB5907DB8510
S11302F06739BAE406581947A5FB7826C49A653BC2
S1130300D987045AB8E6A7F91B45C6987A24F8A6F3
S1130310441A99C7257B3A6486D85B05E7B98CD221
S1130320306EEDB3510F4E10F2AC2F7193CD114FCF
S1130330ADF3702ECC92D38D6F31B2EC0E50AFF181
S1130340134DCE90722C6D33D18F0C52B0EE326CB3
S11303508ED0530DEFB1F0AE4C1291CF2D73CA94E1
S11303607628ABF517490856B4EA6937D58B57098F
S1130370EBB536688AD495CB2977F4AA4816E9B741
S1130380550B88D6346A2B7597C94A14F6A8742A73
S1130390C896154BA9F7B6E80A54D7896B350000FF
S11303A00A0B02090C0D0E080703040100000000EB
S11303B00000000000000000000000000000000039
S11303C000000000000000000000121110000000F6
S11303D00000000000000000000000000000000019
S11303E00000000001021020200808102040102006
S11303F040800201020108040201010204081020E5
S113040040808040201008040201800402018040E2
S1130410201008040201080402010102040810204B
S113042040800102040810204080050505050705E9
S113043008080808020202020A0A0808040404045C
S11304400101010101010101030303030303030388
S1130450040707070C0C0C0C0C0C0C0C0202020217
S113046006060606060606060B0B0B0B0B0B0B0B00
S1130470000020002300260029002C002F00320059
S1130480000100000301060109010000220025000B
S113049028002B002E003100340002010000050169
S11304A008010B0100002100240027002A002D0070
S11304B03000330001010000040107010A01BD13EB
S11304C07633C11311241FBECFEFD1E2DEBFCDBFFF
S11304D000E00CBF1AE0A0E0B2E0EEE2FFE700E0CB
S11304E00BBF02C007900D92AA34B107D9F72AE0D6
S11304F0AAE4BAE001C01D92AF3FB207E1F712E0EF
S1130500C1E6D2E000E006C021970109802FFE0178
S11305100E94933ACF35D10780E00807A9F70E94DB
S1130520A4330C94863F6CCD81E0089522E232E03E
S1130530FC0131832083138212820895CF93DF93C9
S113054022E232E0FC0131832083C281D3812097EF
S113055041F0CE010E941F1FCE01DF91CF910C9478
S1130560B133DF91CF9108950F931F93CF93DF930E
S1130570EC018A819B81892B49F486E090E00E94FA
S1130580B0338C010E94151F1B830A838A819B81CF
S1130590DF91CF911F910F910895CF93DF93EC01D9
S11305A00E94D6228AE292E099838883DF91CF91D8
S11305B00895CF93DF93EC0160E070E08C819D811E
S11305C00E941C2064EF71E080E090E00E942736D6
S11305D060E070E08C819D810E94F11F81E0DF91D9
S11305E0CF910895E6DFFFCFFC01848195810E94BD
S11305F0841F26E0969587952A95E1F781700895E2
S113060008950F931F93CF93DF938C018EE090E0B6
S11306100E94B033EC0168E00E94B519F801D78359
S1130620C68383E190E00E94B033EC01F801668157
S113063077810E94460CF801D187C087CE010E94C1
S1130640310D81E0DF91CF911F910F910895CF93E8
S1130650DF93EC010E94D6228AE492E09983888396
S11306601F821E8219861886DF91CF9108952AE48D
S113067032E0FC01318320830C94E722CF93DF9393
S1130680EC01888599850E94F10D6EE272E085E5A2
S11306909AE00E94FF3360E0888599850E947D0E70
S11306A0AB01BC0122E030E085E59AE00E94AB3565
S11306B06AE37AE085E59AE0DF91CF910C94FF3309
S11306C0CF93DF93EC018C819D81662339F061E047
S11306D070E00E941C20CE01D1DF04C061E070E014
S11306E00E94F11F81E0DF91CF910895EC018C818C
S11306F09D810E94841F93FF0FC061E070E08C8194
S11307009D810E941C20CE01B9DF8C819D810E94B5
S1130710841F93FDFACFEBCF60E0CE01D1DF8C8153
S11307209D810E94841F93FFFACFE1CFFC01848155
S11307309581662329F062E070E00E941C2004C0C9
S113074062E070E00E94F11F81E00895CF93DF938F
S1130750EC01888599850E94F10D60E08885998572
S1130760DF91CF910C947D0EEC018C819D810E94D0
S1130770841F93FF0DC062E070E08C819D810E9414
S11307801C208C819D810E94841F93FDFACFEDCFA4
S113079060E0CE01CBDF8C819D810E94841F93FF9A
S11307A0FACFE3CFFC0113A2108E80E008950F93DB
S11307B01F93CF93DF93CDB7DEB72C970FB6F89482
S11307C0DEBF0FBECDBF8C01DC0159968D919C918B
S11307D05A97BCDFF80164AB75AB86AB97AB10A638
S11307E011A612A613A60680F781E02D83859485B1
S11307F0880F991F092E000CAA0BBB0BF80184A7C4
S113080095A7A6A7B7A710AA11AA12AA13AA6EE4BD
S113081072E0CE0107960E945138F80144A555A50F
S113082066A577A5CE0107960E94EA386AE37AE0C6
S1130830CE0107960E94AE38BE01695F7F4FCE019C
S113084001960E947A38BE016F5F7F4FC8010E94F3
S11308500E1BCE0101960E94EA3783E0D8019396DD
S11308608C93939758961C92CE0107960E94EA3770
S113087080E02C960FB6F894DEBF0FBECDBFDF919B
S1130880CF911F910F910895CF93DF93EC0160E016
S1130890898D9A8D15DF60E0898D9A8D47DF8F8D64
S11308A098A10E94891389A19AA10E940C148B8D8E
S11308B09C8DA6DE8D8D9E8DDF91CF9181C7CF92C9
S11308C0DF92FF920F931F93CF93DF93CDB7DEB7E1
S11308D063970FB6F894DEBF0FBECDBF8C01CE0177
S11308E001966C010E943013D8011796DC92CE92C7
S11308F01697F8018281938137DE0E94841F93FF4B
S1130900F8CFD801ED91FC910280F381E02DC8016C
S11309101995F82E811107C0D801ED91FC9104803E
S1130920F581E02DF4CFC6010E94FB1281E0B2E014
S1130930FB1280E063960FB6F894DEBF0FBECDBF06
S1130940DF91CF911F910F91FF90DF90CF90089589
S1130950FC01128E118E148E138E168E158E10A21B
S1130960178E12A211A213A210A611A612A613A6E4
S113097014A615A616A617A614A215A216A217A2A7
S113098014AA15AA16AA17AA10AA11AA12AA13AA77
S113099010AE0895CF93DF93EC010E94791A83E19E
S11309A094E099838883CE01DF91CF91D1CF8F9248
S11309B09F92AF92BF92EF92FF920F931F93CF93A8
S11309C0DF93CDB7DEB72C970FB6F894DEBF0FBE1A
S11309D0CDBFDC0193964C91939750E04E30510576
S11309E008F094C37C01FA018827EE58FF4F8F4F1B
S11309F00C94933A60E672E0CE0101960E9451385D
S1130A00BE016F5F7F4FC7010E940E1BCE0101968E
S1130A100E94EA37F701858D968DACD660E0D70148
S1130A2059968D919C915A974BDE60E0F701818D28
S1130A30928D7CDED70191968D919C9192970E9424
S1130A40E31381E0F70183A300E110E020E030E04C
S1130A5048E853E160E070E0C7010E949D1A56C364
S1130A6091968D919C9192970E941314882309F476
S1130A704DC36DE772E0CE0101960E945138BE016C
S1130A806F5F7F4FC7010E940E1BCE0101960E942B
S1130A90EA37F701878D90A10E94631301E110E00A
S1130AA020E030E048EF5AE260E070E0C7010E94C5
S1130AB09D1A82E0FDC2FD01878D90A10E949013D2
S1130AC0882309F423C36DE972E0CE0101960E94E4
S1130AD05138BE016F5F7F4FC7010E940E1BCE01CC
S1130AE001960E94EA37C7010E94BF1A0DC367EB43
S1130AF072E0CE0101960E945138BE016F5F7F4FB4
S1130B00C7010E940E1BCE0101960E94EA37D7014D
S1130B101696ED91FC9117978081811106C05F961E
S1130B208D919C9190970E94761361E0F701818DDD
S1130B30928DC6DD01E110E020E030E048EF5AE29A
S1130B4060E070E0C7010E949D1A84E0B1C2FD011B
S1130B50878D90A10E949C13882309F4D7C26AED63
S1130B6072E0CE0101960E945138BE016F5F7F4F43
S1130B70C7010E940E1BCE0101960E94EA37D701DD
S1130B801696ED91FC9117976585768514968D914F
S1130B909C9115970E94C824049789F4F701838DCA
S1130BA0948D07DD02E110E020E030E048EB5BE0EB
S1130BB060E070E0C7010E949D1A85E079C2D70108
S1130BC01696ED91FC91179784E0818381E0D89685
S1130BD08C93D89760E059968D919C915A9770DDCB
S1130BE0F701878D90A10E94631365EF72E0CE0137
S1130BF001960E945138BE016F5F7F4FC7010E946A
S1130C000E1BCE0101960E94EA3746C2FD01838D78
S1130C10948DEADC882309F479C26DE173E0CE0196
S1130C2001960E945138BE016F5F7F4FC7010E9439
S1130C300E1BCE0101960E94EA3703E110E020E08A
S1130C4030E040E45DE063E070E0C7010E949D1A7B
S1130C5087E02EC2FD01818D928D78DD4B015C0110
S1130C600E94F635D701D0960D911D912D913C919E
S1130C70D39708571C4E2F4F3F4F061717072807C7
S1130C80390770F563E373E0CE0107960E9451388B
S1130C90B501A401CE0107960E9448396AE37AE0BF
S1130CA0CE0107960E94AE38BE01695F7F4FCE0128
S1130CB001960E947A38BE016F5F7F4FC7010E9480
S1130CC00E1BCE0101960E94EA370E94F635F70109
S1130CD060AB71AB82AB93ABCE0107960E94EA374F
S1130CE020E030E040EA50E4D701D4966D917D9144
S1130CF08D919C91D7970E9418309B01AC01C5013E
S1130D00B4010E940A31181654F020E030E046E99C
S1130D1052E4C501B4010E940A3118165CF404E1DE
S1130D2010E020E030E040EE53E964E070E0C701F9
S1130D300E949D1A20E030E040EA52E4C501B4016B
S1130D400E940A3118160CF0E1C167E473E0CE0189
S1130D5001960E945138BE016F5F7F4FC7010E9408
S1130D600E1BCE0101960E94EA3760E0F701818DE7
S1130D70928DA6DCD7011696ED91FC9117976585A7
S1130D80768514968D919C9115970E94C82404979A
S1130D90F1F4F701858D968D00D568EE73E080E05F
S1130DA090E00E94273661E0D70159968D919C917D
S1130DB05A97BCDC05E110E020E030E040E355E761
S1130DC060E070E0C7010E949D1A88E044C1D70129
S1130DD01696ED91FC91179784E0818381E0D89673
S1130DE08C93D8975F968D919C9190970E946313F2
S1130DF065EF72E0CE0101960E945138BE016F5F2B
S1130E007F4FC7010E940E1BCE0101960E94EA3754
S1130E1001E110E020E030E048EF5AE260E070E0E9
S1130E20C7010E949D1A38C05D968D919C915E9772
S1130E30DAD4882309F46AC160E673E0CE0101962E
S1130E400E945138BE016F5F7F4FC7010E940E1B85
S1130E50CE0101960E94EA37F701858D968D8AD4DA
S1130E6060E0D70159968D919C915A975FDC06E119
S1130E7010E020E030E048E853E160E070E0C701B2
S1130E800E949D1AD7011696ED91FC9117978081C7
S1130E90811102C089E00DC18DE0DDC05D968D91A8
S1130EA09C915E9794D4882309F430C167E773E07A
S1130EB0CE0101960E945138BE016F5F7F4FC7017A
S1130EC00E940E1BCE0101960E94EA37F70181A110
S1130ED092A10E94F71300E110E020E030E048E81E
S1130EE053E160E070E0C7010E949D1A8AE0E0C00F
S1130EF0FD0181A192A10E942414882309F406C152
S1130F006EE873E0CE0101960E945138BE016F5F16
S1130F107F4FC7010E940E1BCE0101960E94EA3743
S1130F20D70191968D919C9192970E94E313F701BA
S1130F3080A591A5A2A5B3A50196A11DB11D80A769
S1130F4091A7A2A7B3A766EA73E0CE0107960E9411
S1130F505138D70198964D915D916D917C919B97F5
S1130F60CE0107960E94EA386AE37AE0CE0107963A
S1130F700E94AE38BE01695F7F4FCE0101960E9488
S1130F807A38BE016F5F7F4FC7010E940E1BCE01EE
S1130F9001960E94EA3700E110E020E030E048E8E2
S1130FA053E160E070E0C7010E949D1AF70140A57B
S1130FB051A562A573A584A595A5A6A5B7A54817AF
S1130FC059076A077B0784F40E94F635DC01CB01DC
S1130FD08C509E4FAF4FBF4FF70184A395A3A6A398
S1130FE0B7A38BE083A302C08CE083A3CE01079652
S1130FF00E94EA378BC00E94F635F70184A095A0C1
S1131000A6A0B7A086169706A806B90608F07EC063
S113101063EB73E0CE0101960E945138BE016F5F0D
S11310207F4FC7010E940E1BCE0101960E94EA3732
S1131030D70191968D919C9192970E94F71300E1AC
S113104010E020E030E048E853E160E070E0C701E0
S11310500E949D1A8AE0F70183A358C091968D914E
S11310609C9192970E941314882309F44FC060ED59
S113107073E0CE0101960E945138BE016F5F7F4F2D
S1131080C7010E940E1BCE0101960E94EA37F701A8
S1131090878D90A10E94631301E110E020E030E00D
S11310A048EF5AE260E070E0C7010E949D1A8DE0AB
S11310B0D70193968C932AC0FD01878D90A10E943D
S11310C09013882319F16BEE73E0CE0101960E9410
S11310D05138BE016F5F7F4FC7010E940E1BCE01C6
S11310E001960E94EA37C7010E94BF1AD701D89619
S11310F08C91811102C081E001C084E0D701169671
S1131100ED91FC911797818382E001C080E02C96D9
S11311100FB6F894DEBF0FBECDBFDF91CF911F9104
S11311200F91FF90EF90BF90AF909F908F90089594
S11311300F931F93CF93DF93CDB7DEB72C970FB6E2
S1131140F894DEBF0FBECDBFFC01808D813009F461
S113115051C0823009F44EC08F01CF010E94D71ACA
S1131160811106C0C80123DC813009F041C037C0B9
S113117060E074E0CE0107960E945138D801509681
S11311804D915D916D917C915397CE0107960E948C
S11311901939BE01695F7F4FCE0101960E947A38EA
S11311A06AE37AE0CE0101960E948839CE01019665
S11311B00E94EA37BE01695F7F4FCE0101960E940B
S11311C07A38BE016F5F7F4FC8010E940E1BCE01AB
S11311D001960E94EA37CE0107960E94EA37D801A9
S11311E0ED91FC910680F781E02DC801199581E00D
S11311F0F801808F2C960FB6F894DEBF0FBECDBFDA
S1131200DF91CF911F910F9108950F931F93CF9367
S1131210DF93EC010E94931A8AE090E00E94B033BD
S11312208C016A817B8113DA1A8F098F86E090E042
S11312300E94B0338C016A817B81AFD91C8F0B8FE4
S113124086E090E00E94B0338C016A817B8186D273
S11312501E8F0D8F86E090E00E94B0338C016A816E
S11312607B810E94571318A30F8F87E090E00E94A0
S1131270B0338C016A817B810E94D6131AA309A31F
S1131280898D9A8DDC01ED91FC910190F081E02D26
S113129019958B8D9C8DDC01ED91FC910190F08171
S11312A0E02D19958D8D9E8DDC01ED91FC910190C1
S11312B0F081E02D19958F8D98A1DC01ED91FC91C1
S11312C00190F081E02D199589A19AA1DC01ED919D
S11312D0FC910190F081E02D199581E0DF91CF918F
S11312E01F910F910895FC01138E108E80E00895D4
S11312F00F931F93CF93DF93EC0100E210E020E003
S113130030E040E157E260E070E00E949D1A81E025
S11313108B8F188E80E0DF91CF911F910F910895EC
S1131320FC01818D928DF3C0CF93DF93EC018A8110
S11313309B811AD90E94841F93FFF9CFE881F98118
S11313400190F081E02DCE011995811106C0E8814C
S1131350F9810480F581E02DF6CF91E0823009F027
S113136090E0892FDF91CF910895CF93DF93EC0123
S11313700E94791A81E894E0998388831A8E198EE1
S11313801B8EDF91CF9108950F931F93CF93DF931B
S1131390EC018B8D8130B1F028F0823049F183303B
S11313A0D9F50EC06FE174E085E59AE00E94FF3341
S11313B0898D9A8DA3D0882379F1CE010E94BF1A1A
S11313C082E02BC060E474E085E59AE00E94FF337C
S11313D0898D9A8D78D000E210E020E030E040E181
S11313E057E260E070E0CE010E949D1A82E013C0D3
S11313F0898D9A8D83D0882379F06DE574E085E535
S11314009AE00E94FF33CE010E94BF1A8C819D8115
S11314100E94DE2483E08B8F80E0DF91CF911F91C7
S11314200F910895CF93DF93EC01888D813011F1F2
S1131430823001F1CE010E94D71A811103C0CE017E
S1131440A3DF17C060E074E085E59AE00E94FF33F3
S1131450488959896A897B892AE030E085E59AE0E0
S11314600E9471346AE37AE085E59AE00E94FF33D2
S113147081E0888FDF91CF9108950F931F93CF93CD
S1131480DF938C010E94931A86E090E00E94B033AF
S1131490EC01F801628173810AD0F801D28FC18F07
S11314A0CE01DF91CF911F910F910C94CA22CF935B
S11314B0DF93EC010E94D62281E994E0998388832A
S11314C0DF91CF910895CF93DF93EC0163E070E057
S11314D08C819D810E941C2064EF71E080E090E08B
S11314E00E94273663E070E08C819D810E94F11F89
S11314F081E0DF91CF910895E6DFFFCFFC01848185
S113150095810E94841F92FB882780F9089508958D
S1131510FC013696409611921186E817F907D9F71F
S11315200895CF93DF93EC010E94D6228FEA94E0D2
S113153099838883CE01DF91CF91EACFCF93DF9354
S1131540EC0160E08DE00E94223761E089E00E94B6
S11315502237CE01DDDF81E0DF91CF910895AF9294
S1131560BF92CF92DF92EF92FF920F931F93CF938C
S1131570DF93CDB7DEB762970FB6F894DEBF0FBE28
S1131580CDBF6C0123E030E04DE069E0CE0101966F
S11315900E947E1789E9E82E84E0F82E92E0A92EB5
S11315A0BB24B394F701019111917F01A80141502B
S11315B051096CE070E0F601848195810E9443201A
S11315C06EE170E080E090E00E942736CE01019643
S11315D00E944118F601E00FF11F108AC99730F0FC
S11315E08681811108C0B682B08A05C086818823AD
S11315F011F01682A08AFBEAEF16F4E0FF0691F6DA
S113160062960FB6F894DEBF0FBECDBFDF91CF91C7
S11316101F910F91FF90EF90DF90CF90BF90AF900C
S11316200895FC01868587878585868784858587D7
S11316308385848782858387818582878085818766
S1131640878180871782DF0150967A961D92AE17A4
S1131650BF07E1F70895CF93DF93CDB7DEB7C35447
S1131660D1090FB6F894DEBF0FBECDBF7C0150DFA9
S1131670CE0101966BD3CE01019683D7C7016FDFEC
S11316806BE37AE0CE01CE960E945138570187E091
S1131690A80EB11C01E010E0D12CF50181915F018D
S11316A020E08823F1F0A801B801CE010196A1D36E
S11316B065E974E0CE01C8960E945138BE01625CAF
S11316C07F4FCE01C8960E947739BC01CE01CE96D9
S11316D00E946538CE01C8960E94EA37DD24D3946F
S11316E01CC04FEF5FEFB801CE01019682D367E9CA
S11316F074E0CE01C8960E945138BE01625C7F4FEF
S1131700CE01C8960E947739BC01CE01CE960E94C4
S11317106538CE01C8960E94EA370F5F1F4F0A3022
S1131720110509F0BACF4D2D60E0CE01019698D392
S1131730CE0101961AD7BE01625C7F4F85E59AE01F
S11317400E940A3468EE73E080E090E00E9427363D
S1131750CE01CE960E94EA3791CF0895CF93DF93BE
S1131760EC010E94D62288EF94E099838883DF916C
S1131770CF910895CF93DF93EC0161E170E08C8108
S11317809D810E94F11F60E170E08C819D810E9427
S11317901C2081E0DF91CF910895CF93DF93EC017A
S11317A061E170E08C819D810E941C2060E170E009
S11317B08C819D810E941C2081E0DF91CF9108954E
S11317C060E170E0FC01848195810C94F11FFC01BF
S11317D0848195810E94841F84E0989F812D99279C
S11317E0112481700895FC01848195810E94841FD5
S11317F091FB882780F90895EC0101E08C819D819B
S11318000E94841F93FF09C0CE01B4DF8C819D81A7
S11318100E94841F93FDFACF24C0CE01BEDFCE0107
S1131820E2DF182F10278C819D810E94841F93FD75
S113183018C0CE01D8DF882351F01111F4CF63EB27
S113184074E085E59AE00E94FF3311E0ECCF1123A8
S113185051F360EC74E085E59AE00E94FF3310E0F8
S1131860E2CFCE01B4DF882319F061ED74E002C049
S113187062EE74E085E59AE00E94FF3368EE73E05F
S113188080E090E00E942736B9CF0895FC0185E4FA
S11318909CE0928B818B768365831482108289E02D
S11318A0818381E0828383830895CF93DF93EB0167
S11318B067E0CE010E945A1A91E02F81281390E02C
S11318C0892FDF91CF910895EF92FF920F931F9389
S11318D0CF93DF938C017B01D42FFC01858196810A
S11318E00E94A919C0E0B701F801858196810E9480
S11318F0D719882351F0DC1305C0B701C801D5DF1F
S1131900811104C0CF5FDC1770F780E0DF91CF91C5
S11319101F910F91FF90EF900895EF92FF920F9314
S11319201F93CF93DF938C01EB017A01FC01858136
S113193096810E949E18882311F1BE01F8018581C9
S113194096810E94891940E06EEBF80185819681A9
S11319500E943B19E701F9E0EF0EF11CF8018581C3
S113196096810E946E198993CE15DF05B9F7F801A7
S1131970858196810E949E1891E0813009F090E063
S1131980892FDF91CF911F910F91FF90EF900895D0
S1131990CF93DF93EA01C1DF882339F068E0CE01F9
S11319A00E945A1A91E02885281390E0892FDF912C
S11319B0CF9108950F931F93CF93DF93EC018B0185
S11319C08D819E810E949E18B8018D819E810E9406
S11319D0891940E064EB8D819E810E943B198D81C1
S11319E09E810E941019182F8D819E810E949E183D
S11319F081E0111180E0DF91CF911F910F91089543
S1131A00CF93DF93CDB7DEB729970FB6F894DEBF37
S1131A100FBECDBFFB0120812031C9F0AE014F5F65
S1131A205F4FB6DF882389F08D818F3361F020F416
S1131A308F3159F489E00CC08F3519F08F3739F0A4
S1131A4004C08BE005C08AE003C080E001C08CE0E4
S1131A5029960FB6F894DEBF0FBECDBFDF91CF91AC
S1131A600895EF92FF920F931F93CF93DF93CDB717
S1131A70DEB728970FB6F894DEBF0FBECDBF8C013A
S1131A80FC01858196810E94A919F8011482FF2422
S1131A90F394BE016F5F7F4FF801858196810E94A8
S1131AA0D719882361F1BE016F5F7F4FC801FDDE46
S1131AB0882379F3F8018081811107C0BE016F5F2B
S1131AC07F4FC80177DF811117C0F801E180BE01A3
S1131AD06F5F7F4FC80194DF8E1518F4F801818180
S1131AE005C0BE016F5F7F4FC8018ADFF8018183A3
S1131AF084818F5F8483CDCFF801F082E6CF28966E
S1131B000FB6F894DEBF0FBECDBFDF91CF911F910A
S1131B100F91FF90EF900895FC01858196810E94BA
S1131B20101991E0813009F090E0892F08958F9287
S1131B309F92AF92BF92CF92DF92EF92FF920F9358
S1131B401F93CF93DF93EC016950633048F4E62F81
S1131B50F0E0EE0FFF1FE450FB4F0081118102C043
S1131B600EEE12E08B818823E9F0888181111AC07E
S1131B700E94F6354B015C016801110FEE08FF0865
S1131B80CE01CADF811120C00E94F635DC01CB01F1
S1131B908C199D09AE09BF0988159905AA05BB05CD
S1131BA078F312C0B801110F880B990BDF91CF9114
S1131BB01F910F91FF90EF90DF90CF90BF90AF9067
S1131BC09F908F900C942736DF91CF911F910F91A6
S1131BD0FF90EF90DF90CF90BF90AF909F908F9049
S1131BE00895CF93DF93EC018D819E810E949E180E
S1131BF08D819E810E94A619488164E48D819E8115
S1131C000E943B198A81882329F06981CE01DF91E2
S1131C10CF918DCFDF91CF910895FA01218130E0EA
S1131C20C901982F8827990F990F990F208148E0AF
S1131C30249F90011124282B392BDB018C918031B6
S1131C40C1F4678170E08681AB01481B5109CA0168
S1131C509695982F8827979587950E945E3A6051AC
S1131C607109207F53E0220F331F5A95E1F7260FA5
S1131C70371FC9010895EF92FF920F931F93CF93DB
S1131C80DF93CDB7DEB729970FB6F894DEBF0FBE4A
S1131C90CDBF8C017B01AE014F5F5F4F79DE88239E
S1131CA039F0AE014F5F5F4FB701C801B6DF02C024
S1131CB080E894EE29960FB6F894DEBF0FBECDBF30
S1131CC0DF91CF911F910F91FF90EF900895D3DF93
S1131CD0813824EE920764F0BC01990F880B990BAC
S1131CE00E947E3020E030E040E05CE30C940E3152
S1131CF060E070E08EEF92EC08950F931F93CF9302
S1131D00DF93CDB7DEB728970FB6F894DEBF0FBECA
S1131D10CDBF8C01462FBE016F5F7F4FD5DD882379
S1131D2031F0BE016F5F7F4FC801D1DF04C060E0B6
S1131D3070E08EEF92EC28960FB6F894DEBF0FBEDB
S1131D40CDBFDF91CF911F910F910895CF93DF9372
S1131D50EC010E94CC2285E895E099838883DF9189
S1131D60CF910895CF93DF93EC018FEF9FEF9F8383
S1131D708E83998788879B878A879D878C8745E090
S1131D8050E060E270E0CE010E960E94C83C1FA2B3
S1131D9018A61AA619A681E08BA71EAAFE0173969F
S1131DA0DE019C96A7968FEF9FEF819391931D92EE
S1131DB0EC17FD07D1F7DF91CF910895CF93DF930F
S1131DC0EC010E94D62285E895E099838883CE01B0
S1131DD0DF91CF91C7CFCF93DF93EC0185E895E0F6
S1131DE099838883CE01BEDFCE01DF91CF910C941D
S1131DF0E722FB01EE0FFF1FE80FF91F548B438B03
S1131E00FC01E60FF71F24A721E0FC0123A7089596
S1131E10FC01613071F038F0623041F0633059F404
S1131E205587448708C05783468305C05387428734
S1131E3002C05187408781E083A70895FC01613087
S1131E4049F030F0623041F0633039F4418B05C021
S1131E50468703C0478701C0408B81E083A708956C
S1131E60FC0181E083A7613051F030F0623051F021
S1131E70633051F440A7089542A711A6089541A7DD
S1131E8012A6089547A3089513A60895FC01693086
S1131E90710509F44AC0D0F464307105F1F150F4CD
S1131EA062307105B1F1B8F56130710509F049C0CE
S1131EB02DEE48C066307105A1F188F167307105D7
S1131EC091F168307105E9F521E03CC06E3071058F
S1131ED0A1F160F46B30710561F148F16C3071056A
S1131EE051F16D30710569F521E62CC06D3F8FEF1E
S1131EF0780729F128F46F30710519F527E122C01C
S1131F006E3F8FEF7807C9F06F3F7F4FD1F42FEF0B
S1131F1019C023E417C029E415C02DE213C029E138
S1131F2011C021E10FC02DEC0DC029E00BC025E04C
S1131F3009C021E307C023E905C023E103C02FE75B
S1131F4001C021E890E0442319F086A9882311F008
S1131F50822F08958FEF9FEF0895CF93C22F96DFBE
S1131F60CC2311F0816002C08E7F9927CF91089510
S1131F70862F90E0FC01E154F109E731F10508F006
S1131F8048C08827E058FF4F8F4F0C94933A44235E
S1131F9009F44EC082ED90E0089541113DC022C085
S1131FA0411143C04BC0442309F442C086E390E08E
S1131FB008954423E9F186EF90E0089541112CC07F
S1131FC03DC0442361F18DEE90E00895442351F126
S1131FD08FE390E00895411134C083E790E00895C1
S1131FE0411123C086E790E00895442309F182EE6D
S1131FF090E008954423F9F086E190E008954423A5
S1132000E9F08EEF90E0089541111BC087E390E062
S113201008958FEF90E008958EE390E0089587E6A9
S113202090E0089587E790E008958AE190E00895AC
S113203086E690E0089586EE90E008958CED90E0B9
S113204008958BEC90E008951F93CF93DF93EC01F8
S113205060E08BE00E945E376D897E894DA5CE01DC
S113206015DF282F41E06AE08CE00E94B4376F89C5
S1132070788D4EA5CE010ADF282F41E06AE08CE07E
S11320800E94B437698D7A8D4FA5CE01FFDE282FCB
S113209041E06AE08CE00E94B4376B8D7C8D48A9E6
S11320A0CE01F4DE282F41E06AE08CE00E94B437D0
S11320B06D8D7E8D49A9CE01E9DE282F41E06AE0CD
S11320C08CE00E94B4376F8D78A14AA9CE01DEDE80
S11320D0282F41E06AE08CE00E94B43769A17AA11C
S11320E04BA9CE01D3DE282F41E06AE08CE00E94A8
S11320F0B4376BA17CA14CA9CE01C8DE282F41E0E6
S11321006AE08CE00E94B4376DA17EA14DA9CE0196
S1132110BDDE282F41E06AE08CE00E94B4376C8574
S11321207D852AA540E0CE0118DF282F41E06AE032
S11321308CE00E94B4376A857B8529A540E0CE01F6
S11321400CDF282F41E06AE08CE00E94B4372FA115
S113215011E021276885798540E0CE01FEDE282F35
S113216041E06AE08CE00E94B43741E06989CE0125
S1132170FFDE282F41E06AE08CE00E94B43740E0A3
S11321806989CE01F5DE282F41E06AE08CE00E94E7
S1132190B43741E06889CE01EBDE282F41E06AE0E4
S11321A08CE00E94B43740E06889CE01E1DE282F3C
S11321B041E06AE08CE00E94B43741E06F85CE01D3
S11321C0D7DE282F41E06AE08CE00E94B43740E07B
S11321D06F85CE01CDDE282F41E06AE08CE00E94BD
S11321E0B43741E06E85CE01C3DE282F41E06AE0BA
S11321F08CE00E94B43740E06E85CE01B9DE282F12
S113220041E06AE08CE00E94B43728A521276E8162
S11322107F8140E0CE01A1DE282F41E06AE08CE01E
S11322200E94B43761E08BE00E945E371BA6DF9109
S1132230CF911F910895CF93DF93CDB7DEB7619708
S11322400FB6F894DEBF0FBECDBF8C018FE0E2E77E
S1132250F5E09E012F5F3F4F6901D90101900D9276
S11322608A95E1F7198A188A81E0D80197968C93A8
S1132270979798968C9398979A968C939A97999601
S11322801C928AE0E82EF12C97E0292E312C26E0CE
S1132290422E512CF8011782168277247394D801A8
S11322A016962D913C9117972A30310598F7F6012F
S11322B0E20FF31F80811E968C934901BFEF8B1AA6
S11322C09B0AF60101900020E9F73197BF016C19D0
S11322D07D09C4010E944A3AF601E80FF91F808182
S11322E0F80187875901F2E0AF0EB11CF6010190A5
S11322F00020E9F73197BF016C197D09C5010E94DF
S11323004A3AF601E80FF91F8081D80150968C9360
S1132310F9013396D6010D900020E9F71197BD011C
S11323206C197D09CF010E944A3AD601A80FB91F42
S11323308C91D80151968C93C701821B930BB701E2
S11323400E944A3AD80119969C938E931897C40117
S1132350B7010E944A3AD8011B969C938E931A9710
S113236089E090E0821B930B1D969C938E931C979F
S113237088E090E0821B930BB7010E944A3AD8018F
S113238096969C938E939597C501B7010E944A3AFD
S1132390D80194969C938E939397C101821B930BBF
S11323A0B7010E944A3AD80192969C938E939197D2
S11323B0CF01B7010E944A3AF80190A3878FC20166
S11323C0821B930BB7010E944A3A968F858FC901ED
S11323D00496B7010E944A3A948F838F85E090E077
S11323E0821B930BB7010E944A3A928F818FC901D5
S11323F00596B7010E944A3A908F878B84E090E05B
S1132400821B930BB7010E944A3A968B858B87A156
S1132410872587A380A5872580A782A5872582A7EE
S113242081A5872581A7C8010FDE68EE73E080E0EF
S113243090E00E942736AE01405F5F4FBE016F5EA1
S11324407F4FD80114968D919C9115970E94971FE8
S113245040E150E0688985E59AE00E947D3462E0BD
S113246075E085E59AE00E94FF3340E150E0698918
S113247085E59AE00E947D346AE37AE085E59AE096
S11324800E94FF33898980FD06C064E075E085E51C
S11324909AE00E941A34898981FD06C06BE075E0D8
S11324A085E59AE00E941A34898982FD06C064E1B8
S11324B075E085E59AE00E941A34898983FD06C097
S11324C06CE175E085E59AE00E941A34898984FDFF
S11324D006C066E275E085E59AE00E941A348989AF
S11324E085FD06C06FE275E085E59AE00E941A3426
S11324F0898986FD06C06AE375E085E59AE00E9455
S11325001A34898987FD06C066E475E085E59AE09A
S11325100E941A34888980FD06C064E575E085E56B
S11325209AE00E941A34888981FD06C06DE575E041
S113253085E59AE00E941A34888982FD06C068E61F
S113254075E085E59AE00E941A34888983FD06C007
S11325506BE675E085E59AE00E941A34F8018681FD
S113256097810196978386839ACECF93DF93FC015C
S113257023A5222319F0EC0167DD1BA6DF91CF917F
S11325800895CF93DF93EC0161E08AE00E94223743
S113259061E08BE00E94223761E08CE00E942237E8
S11325A0CE01E0DBCE01E1DF81E0DF91CF91089540
S11325B00F931F93CF93DF93EC018EA991E08927AA
S11325C08EAB9BA7CE01D1DF0E94F6352EA9211137
S11325D005C00EE511E020E030E004C00CEB12E091
S11325E020E030E0600F711F821F931FDF91CF91B5
S11325F01F910F91089508951F93CF93DF93EC01DA
S113260089899A891CE0189FB001199F700D1124C3
S1132610FB01EA5FFD4F80818883695F7D4FCE01B6
S113262002960E94CF3C89899A89189FF001199FCC
S1132630F00D1124EA5FFD4F808591859A87898783
S11326408681978198878F83828593859C878B87E2
S113265081E0888B1F861982DF91CF911F910895A5
S1132660FC01128A118A16861586C6CFFC01128ACD
S1132670118A76876587C0CFFC01218932891216B9
S1132680130614F02F5F3F4FFC01328B218BB4CF24
S1132690FC0121893289121613061CF421503109D8
S11326A002C020E030E0FC01328B218BA5CFCF9318
S11326B0DF93EC010E94D6228DE895E0998388830C
S11326C0DF91CF910895CF93DF93EC0166E070E042
S11326D08C819D810E941C2067E070E08C819D812B
S11326E00E941C2081E0DF91CF910895CF93DF9366
S11326F0EC0166E070E08C819D810E94F11F67E02F
S113270070E08C819D810E941C2081E0DF91CF913B
S1132710089567E070E0FC01848195810C94F11FB9
S1132720FC01848195810E94841F24E096958795FD
S11327302A95E1F781700895FC01848195810E94B6
S1132740841F25E0969587952A95E1F78170089571
S1132750EC018C819D810E94841F93FF07C0CE01F0
S1132760DFDF8111F6CFCE01AEDFF3CFCE01E4DFA0
S11327708111EFCFCE01BADFECCF8BE49AE00C9459
S1132780ED208BE49AE00C94FB208BE49AE00E9409
S1132790AE2080934A0A089580914A0A882329F03A
S11327A08BE49AE00E946722F7CF0895CF93DF93DA
S11327B0EC010E94D62285E995E0998388831E82E4
S11327C0DF91CF910895CF93DF93EC0168E070E03F
S11327D08C819D810E941C2069E070E08C819D8128
S11327E00E941C2081E08E83DF91CF910895CF93C6
S11327F0DF93EC0168E070E08C819D810E94F11F01
S113280069E070E08C819D810E941C2082E08E83AF
S113281081E0DF91CF91089569E070E0FC0184814B
S113282095810C94F11FCF93DF93EC018C819D81F2
S11328300E94841F87FF04C081E09E81923009F4C6
S113284080E0DF91CF910895CF93DF93EC018C81E9
S11328509D810E94841F90FF04C081E09E8191307D
S113286009F480E0DF91CF910895EC018C819D8182
S11328700E94841F93FF0DC0CE01D5DF811102C0D9
S1132880CE01A1DF8C819D810E94841F93FDFACF2C
S1132890EDCFCE01D9DF811102C0CE01A8DF8C813A
S11328A09D810E94841F93FFFACFE0CF0895CF93B8
S11328B0DF93EC010E94D6228DE995E09983888309
S11328C0DF91CF910895CF93DF93EC0163E170E042
S11328D08C819D810E941C2063E170E08C819D812C
S11328E00E94F11F62E170E08C819D810E941C2096
S11328F081E0DF91CF910895CF93DF93EC0164E100
S113290070E08C819D810E941C2064E170E08C81C8
S11329109D810E94F11F62E170E08C819D810E9483
S11329201C2081E0DF91CF910895E6DFFFCF62E1C3
S113293070E0FC01848195810C94F11FFC01848179
S113294095810E94841F892F992782958695877087
S113295081700895FC01848195810E94841F94FBF9
S1132960882780F90895CF92DF92EF92FF92CF9358
S1132970DF93EC01E3DF811116C00E94F6356B0191
S113298028E7C21A2CEED20ACE019DDFE12CF12CED
S1132990CE01D4DF811107C00E94F6356C157D0588
S11329A08E059F05A8F3CE01C9DF882399F0CE01D7
S11329B0A3DF0E94F63560557B4F6B01E12CF12CAF
S11329C00E94F6356C157D058E059F05C8F3CE0172
S11329D0AEDF81E0DF91CF91FF90EF90DF90CF9059
S11329E00895FC01118E108E80E008950F931F93BB
S11329F0CF93DF93CDB7DEB72C970FB6F894DEBF35
S1132A000FBECDBF8C01DC011696ED91FC9117979A
S1132A10309741F087819085880F991F5D969C932C
S1132A208E935C9761EA75E0CE0107960E94513857
S1132A30F801648D758DCE0107960E94BC386BEB4E
S1132A4075E0CE0107960E94AE38BE01695F7F4FE4
S1132A50CE0101960E947A38BE016F5F7F4FC80194
S1132A60DDD5CE0101960E94EA370E94F635D801E1
S1132A705E966D937D938D939C93919782E0599686
S1132A808C93599758961C92CE0107960E94EA3768
S1132A9080E02C960FB6F894DEBF0FBECDBFDF9159
S1132AA0CF911F910F910895FC01828D938D3FCF9B
S1132AB00F931F93CF93DF93EC018A819B810E9434
S1132AC0B4020E94841F93FFF8CFE881F98101903A
S1132AD0F081E02DCE011995811106C0E881F981BC
S1132AE00480F581E02DF6CF83E190E00E94B033BD
S1132AF08C01B6DD1F830E83E881F9810280F381A6
S1132B00E02DCE011995811106C0E881F981048078
S1132B10F581E02DF6CF91E0823009F090E0892F25
S1132B20DF91CF911F910F910895FC01118E138EA7
S1132B30128E158E148E168E178E10A211A2089561
S1132B40CF93DF93EC01D5D482E896E09983888310
S1132B50CE01DF91CF91E9CFEF92FF920F931F93B4
S1132B60CF93DF9300D000D0CDB7DEB77C01DC017A
S1132B7059968C91823009F451C028F4882361F06D
S1132B80813089F110C1843009F49EC008F477C003
S1132B90853009F4D1C007C1F701828D938DCEDE53
S1132BA0811115C06EEB75E0CE0101960E9451387B
S1132BB0BE016F5F7F4FC70131D5CE0101960E94E0
S1132BC0EA37D7015A968D919C915B977CDE81E020
S1132BD0F701818F00E310E020E030E048E853E1A2
S1132BE060E070E0A6C0D7015A968D919C915B97E6
S1132BF0A5DE882309F4D7C069ED75E0CE010196FE
S1132C000E945138BE016F5F7F4FC70107D5CE01C7
S1132C1001960E94EA37C701B2D4C3C0F701848D7C
S1132C20958D1816190644F502E310E020E030E013
S1132C3040E65AEE60E070E0C7017FD4B701D701E7
S1132C4014968D919C9115970E94C627882309F4A8
S1132C50AAC068EF75E0CE0101960E945138BE010A
S1132C606F5F7F4FC701DAD4CE0101960E94EA3725
S1132C7083E0F701818F97C085E0818F52C00E9465
S1132C80F635F701068D178D20A131A10617170718
S1132C902807390708F087C062E176E0CE01019683
S1132CA00E945138BE016F5F7F4FC701B7D4CE0178
S1132CB001960E94EA37D7015A968D919C915B97B1
S1132CC01BDE84E0F7012CC0D7015A968D919C91AC
S1132CD05B9740DE882309F466C06CE276E0CE019F
S1132CE001960E945138BE016F5F7F4FC70196D491
S1132CF0CE0101960E94EA37F701848D958D0197E4
S1132D00958F848F0E94F635DC01CB01805E9C4F49
S1132D10AF4FBF4FF701868F978FA0A3B1A382E077
S1132D20818F01E310E020E030E040E757E160E00C
S1132D3070E0C70102D437C0D7015A968D919C9197
S1132D405B97FCDD882379F16BE476E0CE01019694
S1132D500E945138BE016F5F7F4FC7015FD4CE011F
S1132D6001960E94EA37B701F701848195810E9498
S1132D70D527C70104D4D7011696ED91FC91179776
S1132D8082E0818366E676E0CE0101960E945138A6
S1132D90BE016F5F7F4FC70141D4CE0101960E94EF
S1132DA0EA3782E001C080E026960FB6F894DEBFD1
S1132DB00FBECDBFDF91CF911F910F91FF90EF9088
S1132DC008950F931F93CF93DF93CDB7DEB72C975E
S1132DD00FB6F894DEBF0FBECDBFFC01808D8130ED
S1132DE009F448C0823009F445C08F01CF01DFD314
S1132DF0811105C0C801B0DE8130D1F534C060E076
S1132E0074E0CE0107960E945138F8014089518937
S1132E1062897389CE0107960E941939BE01695FE0
S1132E207F4FCE0101960E947A386AE37AE0CE01A0
S1132E3001960E948839CE0101960E94EA37BE01AC
S1132E40695F7F4FCE0101960E947A38BE016F5FA1
S1132E507F4FC801E3D3CE0101960E94EA37CE0129
S1132E6007960E94EA37F801828D938D2CDD81E06C
S1132E70F801808F2C960FB6F894DEBF0FBECDBF3D
S1132E80DF91CF911F910F9108951F93CF93DF93FB
S1132E90EC01E881F9810190F081E02DCE011995D2
S1132EA0182F811106C0E881F9810480F581E02D95
S1132EB0F5CF8A8D9B8D57DD81E0123009F080E0DB
S1132EC0DF91CF911F9108950F931F93CF93DF93B9
S1132ED08C0129D386E090E00E94B033EC01F80124
S1132EE062817381E4DCF801D38FC28FCE01DEDC12
S1132EF081E0DF91CF911F910F910895DC0170E083
S1132F00FB01EC51FC4FE4911496EC93149750E0C0
S1132F10FA01EC51FC4FE4911596EC931597665D1C
S1132F207B4FFB018491E82FF0E0EE0FFF1FE65783
S1132F30FB4F8591949117969C938E931697FA0163
S1132F40E65DFB4FE491F0E0EE0FFF1FE059FB4F0D
S1132F50859194911B969C938E931A97FB0164918F
S1132F60E62FF0E0EE0FFF1FEC55FB4F8591949197
S1132F7019969C938E931897C901253F314014F0FC
S1132F8084EF91E049E3489F9001499F300D11245B
S1132F90C9014C961D969C938E931C9708950F938C
S1132FA01F93CF93DF93EC01E885F98590818C81A1
S1132FB0892B8083EE81FF8190818C818095892388
S1132FC0808384E090E00E946036EE81FF819081EE
S1132FD08C81892B80838AE090E00E946036EE81A8
S1132FE0FF8190818C81809589238083E885F98590
S1132FF090818C818095892380830E940236DC0134
S1133000CB01805B994BAF4FBF4F8E879F87A88BB7
S1133010B98BEA85FB8590818D81892359F00E94C3
S113302002360E851F852889398906171707280750
S1133030390778F7EA85FB8590818D81892369F4C6
S11330400E9402360E851F852889398906171707BD
S11330502807390778F780E00FC00E9402362C85D4
S11330603D85DC01CB01820F931FA11DB11D8E870D
S11330709F87A88BB98B81E0DF91CF911F910F912E
S113308008950F931F93CF93DF93EC0188DF811191
S11330900EC080E090E020C00E9402360E851F859D
S11330A028893989061717072807390790F3EA850D
S11330B0FB8590818D81892379F70E9402362C85C6
S11330C03D85A901455051092E853F85FA01E21B32
S11330D0F30BCF01860F971FDF91CF911F910F91B3
S11330E008951F920F920FB60F9211240BB60F92F0
S11330F02F933F934F935F936F937F938F939F93FC
S1133100AF93BF93EF93FF93E091530AF091540A66
S1133110309709F01995FF91EF91BF91AF919F916D
S11331208F917F916F915F914F913F912F910F906C
S11331300BBE0F900FBE0F901F901895FF920F9328
S11331401F93CF93DF93FC01F080C181D281F89467
S113315089810F2D00958023898378941DE7115070
S113316029F182E090E00E94603688818F21B9F3D2
S1133170F8948A8180238A8389818F29898378942A
S113318080EE91E00E946036F894898108230983D7
S113319086E490E00E9460368881F82211E009F00C
S11331A010E078948AE991E00E946036812FDF91E3
S11331B0CF911F910F91FF9008951F93CF93DF93A9
S11331C0FC011081C181D281812F809560FF12C0E2
S11331D0F8949A8189238A838981812B89838AE05F
S11331E090E00E9460368A81182B1A83789487E3D2
S11331F090E011C0F8949A8189238A838981812B74
S1133200898381E490E00E9460368A81182B1A83B6
S1133210789485E090E0DF91CF911F910C94603613
S11332200F931F93CF93DF93FC010081C181D2815F
S1133230F8948981802B89838A81102F10958123AA
S11332408A8383E090E00E94603689811823198381
S11332508AE090E00E946036C881789485E390E02B
S11332600E946036C02381E009F480E0DF91CF91B1
S11332701F910F910895DF92EF92FF920F931F9386
S1133280CF93DF93EC01D62EE42E08E010E0FF2468
S1133290F39461E08D2D8F2109F460E0CE018DDF80
S11332A0FF0C01501109A9F7E11010C0F894E9814D
S11332B0FA8191818881809589238183E981FA81CA
S11332C0928188818095892382837894DF91CF913C
S11332D01F910F91FF90EF90DF900895EF92FF926E
S11332E00F931F93CF93DF937C0108E010E0C0E0BD
S11332F0D1E0C70195DF8111CD2BDD0F01501109FC
S1133300C1F78C2FDF91CF911F910F91FF90EF9018
S11333100895EF92FF920F931F93CF93DF938C0145
S11333207B0140E065E5A7DFE70188E0E80EF11CDA
S1133330699140E0C8019FDFCE15DF05C9F7DF9131
S1133340CF911F910F91FF90EF90089540E06CECA6
S113335092CFFC01138615861486DC011B963396E6
S11333601E92AE17BF07E1F708951F93CF93DF9323
S1133370EC01162F60E0812F0E942237612F70E04C
S1133380FB01EC51FC4FE491E883FB01E65DFB4F4C
S1133390E491F0E0EE0FFF1FE059FB4F859194910B
S11333A09A838983CE01DF91CF911F91D2CFBF92AF
S11333B0CF92DF92EF92FF920F931F93CF93DF93FD
S11333C0EC01D62EC72E8D85811156C0CE01B6DEF6
S11333D0811104C01B861D861C8662C040E060EF1C
S11333E0CE0149DF01E0E12CB12C11E0CE0118DF60
S11333F0F82ECE0115DF91E0F91203C08130B1F44B
S113340033C02E2D30E0F8121BC08B85181738F40A
S1133410FE01E20FF31F8381802341F402C01817D9
S113342029F0F12C193058F41C8709C0FE01EE0D67
S1133430F11D8381802B8383FF24F39409C0B12E73
S1133440FE01E20FF31F9381802F809589238383EC
S11334506F2DCE01B2DE1F5F000F11F4E39401E083
S113346087E08E1508F0C2CF113430F0BB86B1105E
S113347012C081E08D870FC01B861D861C8680E0EC
S1133480DE011396ED2DFC2D2B969D919193AC1797
S1133490BD07D9F705C08B81882371F381E0F0CF94
S11334A0DF91CF911F910F91FF90EF90DF90CF901C
S11334B0BF900895DC0180E0615040F09D91E82FB9
S11334C0E927F0E0E256FD4F8491F6CF089581E0BC
S11334D00895FC01108611861286138614861586BB
S11334E016861786108A118A128A138A82E0808FC0
S11334F008950F931F93CF93DF93EC018B018AE917
S113350096E099838883CE01E4DF1D830C83C80190
S11335100E9413239B838A831F821E82DF91CF9193
S11335201F910F910895CF93DF93EC01D2DF82E0D6
S1133530888F81E0DF91CF910895CF92DF92EF924F
S1133540FF920F931F93CF93DF93EC0168017901EE
S1133550488759876A877B870E94F6356C877D8701
S11335608E879F87CC8ADD8AEE8AFF8ADF91CF918E
S11335701F910F91FF90EF90DF90CF900895CF931C
S1133580DF93EC01188619861A861B860E94F6358D
S11335906C877D878E879F8782E090E0A0E0B0E013
S11335A08C8B9D8BAE8BBF8BDF91CF910895CF9287
S11335B0DF92EF92FF92CF93DF93EC01CC84DD8412
S11335C0EE84FF8488859985AA85BB85C80ED91E9B
S11335D0EA1EFB1E0E94F635C616D706E806F90653
S11335E040F488859985AA85BB85892B8A2B8B2BEA
S11335F079F480E040E050E0BA01488B598B6A8B43
S11336007B8BDF91CF91FF90EF90DF90CF90089567
S11336104C895D896E897F8981E0EFCF0F931F9379
S1133620CF93DF93EC018B018E819F81892BB1F0C5
S11336306EE876E085E59AE00E94FF33EE81FF8133
S1133640658576854AE050E085E59AE00E94DD34A0
S11336506DE572E085E59AE00E94FF33B80185E5E7
S11336609AE0DF91CF911F910F910C94F133FC01FB
S1133670118E108E80E00895FC01828D938D892B2C
S113368029F015A214A282E0818F108E80E00895A3
S113369008950F931F93CF93DF93EC018A819B814D
S11336A00E94B40231D493FFF9CFE881F9810190EB
S11336B0F081E02DCE011995811106C0E881F981D0
S11336C00480F581E02DF6CF83E190E00E94B033D1
S11336D08C010E9430131B8F0A8FF80121853285DB
S11336E02330310539F0C90101968330910521F069
S11336F0019602C083E090E0F80192878187E88117
S1133700F9810280F381E02DCE011995811106C063
S1133710E881F9810480F581E02DF6CF91E08230D3
S113372009F090E0892FDF91CF911F910F910895B7
S1133730FC01118E10A211A212A213A2158E148ED6
S1133740178E168E15A214A20895CF93DF93EC0161
S1133750D0DE89ED97E099838883CE01DF91CF9104
S1133760E7CFDF92EF92FF920F931F93CF93DF93F4
S1133770CDB7DEB72C970FB6F894DEBF0FBECDBF22
S1133780DC0159964C91599750E04930510508F0A5
S1133790CAC17C01FA018827E956FF4F8F4F0C9468
S11337A0933AFD01848D958DD2D2811115C066EABC
S11337B076E0CE0101960E945138BE016F5F7F4FC3
S11337C0C7012CDFCE0101960E94EA37D7015C962F
S11337D08D919C915D9799D281E0F701818F6FC1A2
S11337E05C968D919C915D97B2D2882309F49BC11C
S11337F0F701868D978D10D3882309F494C168E866
S113380077E0CE0101960E945138BE016F5F7F4F71
S1133810C70104DFCE0101960E94EA37C701AFDE7B
S11338207FC15C968D919C915D9791D28823F9F02C
S1133830F701868D978DF0D2811177C118C08781E9
S11338409085892B09F4B4C102E410E020E030E053
S113385040E65AEE60E070E0C7016FDE85E0F701F4
S1133860818FC7018CDECE0107960E94EA37D7010B
S11338705A96ED91FC915B9794962D913C91959776
S11338808185928528173907C4F55E968D919C91A0
S11338905F97C2D2882389F1D7015A96ED91FC91A2
S11338A05B976585768514968D919C9115970E94FA
S11338B0C824069709F081C16DEB76E0CE0101962C
S11338C00E945138BE016F5F7F4FC701A7DECE0152
S11338D001960E94EA37F701868D978D7FD284E0A6
S11338E0D70159968C9300E510E020E030E048E8D9
S11338F053E160E070E0C70120DED12CF701868D32
S1133900978D8AD2882309F464C16CED76E0CE01E8
S113391001960E945138BE016F5F7F4FC7017EDE62
S1133920CE0101960E94EA37D70194968D919C911D
S11339309597019695969C938E9394976BEF76E06A
S1133940CE0107960E945138F70164A175A1CE01FA
S113395007960E94BC386AE37AE0CE0107960E947B
S1133960AE38BE01695F7F4FCE0101960E947A385E
S1133970BE016F5F7F4FC70151DECE0101960E94E9
S1133980EA37D7015A96ED91FC915B9794962D9165
S11339903C919597818592852817390734F483E003
S11339A059968C93C701EBDD0DC002E410E020E0D2
S11339B030E040E65AEE60E070E0C701BEDD85E02D
S11339C0F701818FCE0107960E94EA3702C1BD013B
S11339D014968D919C9115970E94C627882309F10E
S11339E06DE077E0CE0101960E945138BE016F5F11
S11339F07F4FC70113DECE0101960E94EA37F7011B
S1133A00848D958D93D101E410E020E030E048E509
S1133A105BE160E070E0C70190DD86E0D701599674
S1133A208C93F701848D958D9BD1882309F47BC0F9
S1133A3067E277E0CE0101960E945138BE016F5FC4
S1133A407F4FC701EBDDCE0101960E94EA370E9449
S1133A50F635DC01CB01885A944EAF4FBF4FF701C6
S1133A6080A391A3A2A3B3A387E0818FC70187DDBD
S1133A705AC00E94F635D70190960D911D912D9153
S1133A803C919397061717072807390708F04BC08E
S1133A9069E477E0CE0101960E945138BE016F5F60
S1133AA07F4FC701BBDDCE0101960E94EA37F701C3
S1133AB0848D958D2AD188E0D70159968C9300E4A2
S1133AC010E020E030E048E55BE160E070E0C70131
S1133AD034DD29C0FD01848D958D39D1882319F1F8
S1133AE069E677E0CE0101960E945138BE016F5F0E
S1133AF07F4FC70193DDCE0101960E94EA37B701DB
S1133B00D70114968D919C9115970E94D527C701D2
S1133B1036DDD7015A96ED91FC915B9783E0818362
S1133B2082E0D82E56C0D12C54C067EA77E0CE018B
S1133B3001960E945138BE016F5F7F4FC7016EDD51
S1133B40CE0101960E94EA3760EC77E0CE01079639
S1133B500E945138D7015A96ED91FC915B9761858B
S1133B607285CE0107960E94BC386CEC77E0CE01DA
S1133B7007960E94AE38BE01695F7F4FCE01019661
S1133B800E947A38BE016F5F7F4FC70147DDCE01C7
S1133B9001960E94EA37D7015A96ED91FC915B9702
S1133BA081859285181619060CF049CE83E001C070
S1133BB088E0D70159968C9354CEC701E0DCD70135
S1133BC05A96ED91FC915B9784E0818392E0D92E23
S1133BD095CE8D2D2C960FB6F894DEBF0FBECDBFBB
S1133BE0DF91CF911F910F91FF90EF90DF90089597
S1133BF00F931F93CF93DF93CDB7DEB72C970FB6F8
S1133C00F894DEBF0FBECDBFFC01808D813009F476
S1133C1042C0823009F43FC08F01CF01C8DC81115A
S1133C2003C0C8019EDD35C060E074E0CE01079694
S1133C300E945138F8014089518962897389CE0103
S1133C4007960E941939BE01695F7F4FCE01019624
S1133C500E947A386AE37AE0CE0101960E9488399C
S1133C60CE0101960E94EA37BE01695F7F4FCE0103
S1133C7001960E947A38BE016F5F7F4FC801CEDC87
S1133C80CE0101960E94EA37CE0107960E94EA37D8
S1133C9081E0F801808F2C960FB6F894DEBF0FBE3A
S1133CA0CDBFDF91CF911F910F9108950F931F9373
S1133CB0CF93DF93EC0137DC86E090E00E94B033D1
S1133CC08C016A817B8116D01D8F0C8FC80162D450
S1133CD086E090E00E94B0338C016A817B8173D0CE
S1133CE01F8F0E8FC80156D481E0DF91CF911F91B1
S1133CF00F910895CF93DF93EC0158D487E098E0B7
S1133D0099838883DF91CF910895CF93DF93EC015A
S1133D1065E170E08C819D8164D166E170E08C8105
S1133D209D818AD181E0DF91CF910895CF93DF9374
S1133D30EC0165E170E08C819D817ED166E170E0EB
S1133D408C819D8179D181E0DF91CF910895FC012F
S1133D5084819581D9D0892F881F8827881F089549
S1133D6084E20E948C3721E0892B09F420E0822F21
S1133D700895EC018C819D81C7D093FF12C0CE01C0
S1133D80EFDF882341F065EE77E085E59AE00E9455
S1133D90FF33CE01BADF8C819D81B6D093FDFBCF7A
S1133DA0E9CFCE01D4DF882341F064EF77E085E5E5
S1133DB09AE00E94FF33CE01B9DF8C819D81A4D0AB
S1133DC093FFFBCFD7CFCF93DF93EC01EFD38FE0FB
S1133DD098E099838883DF91CF910895CF93DF93FF
S1133DE0EC0167E170E08C819D8126D164EF71E084
S1133DF080E090E00E94273667E170E08C819D812D
S1133E00F0D081E0DF91CF910895EC018C819D8108
S1133E1090D1CE01E3DFFACF89E20E948C3721E012
S1133E20892B09F420E0822F0895FC01118210826D
S1133E30138212828FEF9FEF9583848308950895F0
S1133E4061E08DE00E94223761E083E00E94223726
S1133E5061E084E00E94223760E085E00E9422371E
S1133E6061E087E00E94223761E086E00E94223709
S1133E7061E082E00E94223760E080E20E94223703
S1133E8060E082E20E94223760E084E20E942237EE
S1133E9060E089E20C94223761E084E00E945E379E
S1133EA081E090E00E94603660E084E00C945E372C
S1133EB0EF92FF921F93CF93DF93C7E0D0E010E01F
S1133EC0EE24E394F12C60E083E00E945E3782E00C
S1133ED090E00E94603685E00E948C37892B39F08F
S1133EE0C7010C2E01C0880F0A94EAF7182B61E071
S1133EF083E00E945E37219730F7812FDF91CF91C5
S1133F001F91FF90EF9008950F931F93CF938C010F
S1133F10C3DFC801CDDFC82FC801CADF2C2F30E0B2
S1133F20A901582BCA01CF911F910F910895CF92E7
S1133F30DF92EF92FF920F931F93CF93DF93EC01E5
S1133F406B017A01A9DFCE01B3DF182FCE01B0DFF8
S1133F50082FCE01ADDFF6018083CE01A9DFF70182
S1133F608083812F90E0902BDF91CF911F910F914F
S1133F70FF90EF90DF90CF900895EF92FF920F9310
S1133F801F93CF93DF93EC017B018A0160E086E00D
S1133F900E945E372F2D40E067E082E00E94B43734
S1133FA02E2D40E067E082E00E94B437212F40E0EC
S1133FB067E082E00E94B437202F40E067E082E0AF
S1133FC00E94B43761E086E00E945E37EA82FB8299
S1133FD008831983DF91CF911F910F91FF90EF9088
S1133FE00895FC016031710590F06051710981E020
S1133FF090E002C0880F991F6A95E2F7809590952A
S11340002281338182239323938382830FC081E0AF
S113401090E002C0880F991F6A95E2F78095909509
S11340202081318182239323918380834081518134
S113403062817381CF01A1CFFC016031710580F0F1
S11340406051710981E090E002C0880F991F6A9560
S1134050E2F722813381822B932B938382830DC0D9
S113406081E090E002C0880F991F6A95E2F72081F1
S11340703181822B932B9183808340815181628192
S11340807381CF017ACF2FE030E0062E02C0220FD9
S1134090331F0A94E2F720953095DC01ED91FC91F1
S11340A011972E233F236F70772702C0440F551FAB
S11340B06A95E2F7422B532B11965C934E9312961A
S11340C06D917C91139759CF0F931F93CF93DF93E7
S11340D08C0180E20E948C37EC0182E20E948C37D2
S11340E0880F991F8C0F9D1FF80195838483DF919E
S11340F0CF911F910F9108950F931F93CF93DF9347
S11341008C0180E20E948C37EC0182E20E948C37A1
S1134110880F991FC80FD91F81E0F80124813581C8
S1134120C217D30709F480E0DF91CF911F910F915B
S113413008950F931F93CF93DF93EC01E5DE8C0179
S113414000271870CE01E0DE882798700817190739
S1134150C9F3DF91CF911F910F910895CF93DF930E
S1134160EC0126E040E855E260E070E085E59AE085
S11341700E948932CE010E94B40262DECE010E9406
S1134180B402A2DF9D838C8363E178E085E59AE045
S11341900E94FF336C817D814AE050E085E59AE01E
S11341A00E9488348C819D81892B39F4CE010E9430
S11341B0B40265E070E015DF06C0CE010E94B402CF
S11341C065E070E039DFCE010E94B40264E070E083
S11341D033DF81E0DF91CF910895CF93DF93EC013A
S11341E00E94960281E398E0998388831F821E824D
S11341F0DF91CF91089521E338E0FC0131832083DE
S11342000C949E020F931F93CF93DF93CDB7DEB729
S1134210AC970FB6F894DEBF0FBECDBF8C01BC01C6
S1134220CE010196F2D1C8010E94B4026DDE8F70F6
S11342309927F8019783868361E278E085E59AE01F
S11342400E94FF33F801668177814AE050E085E5FA
S11342509AE00E948834F801868197818230910522
S113426081F030F4009759F0019789F461E00CC0B3
S11342708330910541F0049751F464E005C060E097
S113428003C062E001C063E0CE010196E1D6CE0135
S113429001969ED1AC960FB6F894DEBF0FBECDBF8B
S11342A0DF91CF911F910F9108950F931F93CF9397
S11342B0DF938C010E94B40227DE8F709927D80106
S11342C017969C938E93169761E278E085E59AE0C1
S11342D00E94FF33F801668177814AE050E085E56A
S11342E09AE00E94883487E390E00E94B033EC01A6
S11342F0B8010E94DE0ECE010E94C11244E560E0C6
S1134300CE010E941E0F45E461E0CE010E941E0F03
S113431043E562E0CE010E941E0F44E563E0CE0156
S11343200E941E0F41E050E061E0CE010E94080FA0
S1134330D80116964D915C91179762E0CE010E94C8
S1134340080FCE010E94B512209731F0CE010E94D1
S1134350EB0ECE010E94B133D8011696ED91FC917B
S113436017973197ED30F10508F0AAC08827E05679
S1134370FF4F8F4F0C94933A86E090E00E94B03345
S1134380EC01B8010E9457138CC086E090E00E94B3
S1134390B033EC01B8010E94CD0283C087E090E005
S11343A00E94B033EC01B8010E94D6137AC08AE0AF
S11343B090E00E94B033EC01B8010E942703CE01C3
S11343C00E94010342C08AE090E00E94B033EC01F5
S11343D0B8010E942703CE010E940103CE010E946E
S11343E0B403182F209709F46CC0CE010E94370340
S11343F063C086E090E00E94B033EC01B8010E94F3
S1134400570A4FC086E090E00E94B033EC01B80137
S11344100E94AE0BCE010E94AD0B17C087E390E063
S11344200E94B033EC01B8010E94DE0ECE010E945E
S1134430C1120BC08AE190E00E94B033EC01B801D4
S11344400E94910ACE010E949E0AE881F9810280AD
S1134450F381E02DCE011995182F209791F1CE010B
S1134460B6D02AC08DE290E00E94B033EC01B801CE
S11344700E94362ECE010E94432EE7CF86E090E0C4
S11344800E94B033EC01B8010E945714CE010E947F
S11344905614DBCF86E090E00E94B033EC01B80103
S11344A029DCCE0177D0D1CF86E090E00E94B033F2
S11344B0EC01B80188DCF5CFCE010E94B13301C014
S11344C010E0812FDF91CF911F910F910895EF920A
S11344D0FF920F931F93CF93DF93CDB7DEB7AC97C3
S11344E00FB6F894DEBF0FBECDBF8C01BC01CE0168
S11344F001968BD087E390E00E94B0337C01B80131
S11345000E94DE0EC7010E94C112E114F10431F0D1
S1134510C7010E94EB0EC7010E94B133F8018481E8
S113452095818130910551F038F08230910549F040
S1134530039769F46EEF08C06FEF06C0C801B5DEDB
S113454006C0C8015FDE03C0CE01019681D5C80153
S11345500E94B402D1DD8823D1F364EF71E080E0DE
S113456090E00E942736C8010E94B402ADDDF80134
S113457095838483CE0101962BD0AC960FB6F89424
S1134580DEBF0FBECDBFDF91CF911F910F91FF9082
S1134590EF90089581E00895FC0189E398E0918308
S11345A0808313821282158214820895CF93DF933D
S11345B0EC01CB0129E338E0398328837B836A83C8
S11345C00E94B4029D838C83DF91CF910895089556
S11345D00895CF93DF93FC0111821082138212821B
S11345E015821482178216821186108613A612A6CB
S11345F0DC011C96B096EF011D921D921992AE1724
S1134600BF07D1F7DF91CF9108950F931F93CF93F5
S1134610DF93EC018B01DDDF1B870A87DF91CF91EC
S11346201F910F910895FC018285938508956A5F17
S11346307F4F660F771F860F971FDC01ED91FC916A
S1134640309729F08181481302C08785089580E05E
S113465008956A5F7F4F660F771F860F971FDC01EF
S1134660ED91FC91309721F0978581E08927089599
S113467080E008950F931F93CF93DF93EC0140E004
S113468063E070E0D4DF182F882331F064E070E039
S1134690CE01DFDF11E0182740E062E070E0CE01D8
S11346A0C6DF882371F064E070E0CE01D2DF8111AF
S11346B007C063E070E0CE01CCDF91E0892701C040
S11346C080E0182B40E061E070E0CE01B0DF082FFD
S11346D08823A9F064E070E0CE01BBDF082F8111CC
S11346E00DC063E070E0CE01B4DF811108C062E068
S11346F070E0CE01AEDF01E0082701C000E0802FAA
S1134700812BDF91CF911F910F910895FC01A2811C
S1134710B38158968C91882369F0A481B581589609
S11347208C91882339F00680F781E02D81E0908D0B
S1134730911101C080E00895CF92DF92EF92FF9231
S11347400F931F93CF93DF937B01EE0CFF1CE80EB6
S1134750F91ED7011C96CD90DC901D97C114D1048D
S113476099F18B01EC01D6011D96ED91FC911E97F8
S1134770E80FF91F10A2C6010E94FB12C6010E9495
S1134780B133F701158614860530110549F006305A
S1134790110549F004301105B9F48A819B8105C0E3
S11347A08C819D8102C08E819F81DC01ED91FC9101
S11347B00190F081E02DDF91CF911F910F91FF9037
S11347C0EF90DF90CF901994DF91CF911F910F91CB
S11347D0FF90EF90DF90CF900895FC01B19620E018
S11347E030E02F5F3F4F2A30310519F041914111DC
S11347F0F8CFFC01E20FF31F41E040A3C901089583
S1134800EF92FF920F931F93CF93DF937C01EB0101
S1134810CC0FDD1FCE0DDF1D0C851D850115110587
S113482031F0C8010E94FB12C8010E94B133C701D4
S1134830D4DF7C0183E190E00E94B0338C01B701A6
S11348400E9436131D870C87C801DF91CF911F91F9
S11348500F91FF90EF9008956A5F7F4F660F771F67
S1134860860F971FFC01808191810895DC011E96BB
S1134870AC01405E5F4F80E090E020E030E0ED91DD
S1134880FD91309749F06181643031F067856111A1
S113489002C09F0101C0CF01A417B50781F72115FC
S11348A0310509F0C9010895EF92FF920F931F9308
S11348B0CF93DF93EB012981243011F1DC011E96A3
S11348C09C01225E3F4F562F472FCB01ED91FD9166
S11348D0309771F005851685EB01ED84FE840E1585
S11348E01F0541F4C181C43029F0852F942F02C0E3
S11348F0E52FF42FA217B30751F05E2F4F2FE6CF09
S1134900DF91CF911F910F91FF90EF90AFCFDF9187
S1134910CF911F910F91FF90EF900895EF92FF9226
S11349200F931F93CF93DF93EB012981243011F16F
S1134930DC0190969C01225F3F4F562F472FCB01FD
S1134940FE91EE91309771F005851685EB01ED84AB
S1134950FE840E151F0541F4C181C43029F0852F52
S1134960942F02C0E52FF42FA217B30751F05E2F46
S11349704F2FE6CFDF91CF911F910F91FF90EF90D2
S113498075CFDF91CF911F910F91FF90EF90089514
S1134990FC01B09629E030E08FEF9FEFB291A29135
S11349A0109741F01D964D915C911E976417750701
S11349B009F4C9012150310989F708950F931F9310
S11349C0CF93DF93EC010E8D1F8D0115110531F08E
S11349D0C8010E94FB12C8010E94B1338C8D9D8DC9
S11349E09F8F8E8F8A8D9B8D9D8F8C8F888D998DB7
S11349F09B8F8A8F8E899F89998F888F8C899D89B7
S1134A009F8B8E8B8A899B899D8B8C8B88899989B6
S1134A109B8B8A8B8E859F85998B888B1F861E86A0
S1134A2088819981DF91CF911F910F910C94A52DCD
S1134A30EC01162F69017A018A819B81DC01ED91D9
S1134A40FC910680F781E02D19958C819D81DC0114
S1134A50ED91FC910680F781E02D19958E819F815F
S1134A60DC01ED91FC910680F781E02D1995888594
S1134A709985DC01ED91FC910680F781E02D199573
S1134A808A859B850E94B40264E070E0AADAC601BC
S1134A908F709927960144E0359527954A95E1F75B
S1134AA0412F50E0CC24C394E12C8C016DE378E0D9
S1134AB0888199818CD4FFCFEC0188819981DC01B4
S1134AC0ED91FC910190F081E02D1995811109C0BF
S1134AD088819981DC01ED91FC910480F581E02DC0
S1134AE0F4CF88859985DC01ED91FC910190F081EA
S1134AF0E02D1995182F811109C088859985DC014D
S1134B00ED91FC910480F581E02DF3CF0E94F63500
S1134B106B017C01B0E1CB0EB7E2DB1EE11CF11CA2
S1134B2088819981DC01ED91FC910280F381E02D73
S1134B301995813021F188819981DC01ED91FC91F5
S1134B400480F581E02D19958A859B850E94B40225
S1134B50DBD993FF09C00E94F635C616D706E806CE
S1134B60F90610F41230A1F088859985DC01ED91E5
S1134B70FC910480F581E02D1995182FDCCFE88194
S1134B80F981208931894289538960E0CE0150DF5F
S1134B9088819981D6D788859985DC01ED91FC912E
S1134BA00280F381E02D19950E94F6356B017C019A
S1134BB0B0E1CB0EB7E2DB1EE11CF11CD5CFDF92D6
S1134BC0EF92FF920F931F93CF93DF93EC0162E474
S1134BD078E085E59AE00E94FF338A819B81DC01BD
S1134BE0ED91FC910190F081E02D1995D82E8C81E6
S1134BF09D81DC01ED91FC910190F081E02D1995EE
S1134C00E82E8E819F81DC01ED91FC910190F08171
S1134C10E02D1995F82E88859985DC01ED91FC919C
S1134C200190F081E02D1995082F88819981DC018C
S1134C30ED91FC910190F081E02D1995182FDD2064
S1134C4049F0EE2099F0FF20E9F0002339F1112317
S1134C5019F139C08A819B81DC01ED91FC910480BA
S1134C60F581E02D1995D82EE1100AC08C819D8123
S1134C70DC01ED91FC910480F581E02D1995E82E7D
S1134C80F1100AC08E819F81DC01ED91FC910480BA
S1134C90F581E02D1995F82E01110AC088859985B2
S1134CA0DC01ED91FC910480F581E02D1995082F2C
S1134CB01111C5CF88819981DC01ED91FC910480AB
S1134CC0F581E02DBACFB1E0DB1203C0EA81FB81AC
S1134CD005C081E0E81209C0EC81FD812089318999
S1134CE04289538960E0CE01A3DEA1E0FA1203C039
S1134CF0EE81FF81F3CF013019F4E885F985EECF19
S1134D00113019F4E881F981E9CF81E0DF91CF9185
S1134D101F910F91FF90EF90DF900895CF93DF9351
S1134D20EC014DDF882309F42EC188819981DC01CF
S1134D30ED91FC910280F381E02D19958A859B8584
S1134D400E94B402D9D981111EC188819981DC01E4
S1134D50ED91FC910480F581E02D1995A885B98524
S1134D6058968C915897813009F49DC008F493C0EB
S1134D70823021F7E88DF98D309761F0AE81BF81E3
S1134D8058968C91882331F08089882319F087857F
S1134D90811190C0EE89FF89309761F0AC81BD81AB
S1134DA058968C91882331F08089882319F087855F
S1134DB081119DC0EC89FD89309761F0AA81BB8186
S1134DC058968C91882331F08089882319F087853F
S1134DD08111AAC08A819B81DC01ED91FC91048040
S1134DE0F581E02D1995813049F4EA81FB81208910
S1134DF031894289538961E0CE011ADE8C819D811B
S1134E00DC01ED91FC910480F581E02D1995813050
S1134E1019F4EC81FD81EBCF8E819F81DC01ED9152
S1134E20FC910480F581E02D1995813019F4EE810F
S1134E30FF81DDCFCE016ADC882321F1CE011ADCAB
S1134E40811115C041E064E070E0CE01F0DB811116
S1134E500EC042E065E070E0CE01E9DB811107C0DD
S1134E6043E066E070E0CE01E2DB882359F08E8DEA
S1134E709F8D892B39F464E070E0CE01EADB88234E
S1134E8009F46EC088859985DC01ED91FC9104805C
S1134E90F581E02D52CFED91FC9111970480F581BD
S1134EA0E02DCD014ACF50962D913D914D915C91CD
S1134EB05397A1CF8181823009F06CCF6CE578E003
S1134EC085E59AE00E941A34888D998DEE81FF81E0
S1134ED0938F828F8E819F81DC01ED91FC91028002
S1134EE0F381E02D1995813009F054CFA0CF818151
S1134EF0813009F05FCF62E778E085E59AE00E94AF
S1134F001A348E899F89EC81FD81978386838C81F5
S1134F109D81DC01ED91FC910280F381E02D1995D6
S1134F20813009F047CF75CF8181811153CF68E873
S1134F3078E085E59AE00E941A348C899D89EA819B
S1134F40FB81978386838A819B81DC01ED91FC91AF
S1134F500280F381E02D1995813009F03BCF45CFD4
S1134F606EE978E085E59AE00E941A348881998197
S1134F70E8D588859985DC01ED91FC910280F38167
S1134F80E02D19957FCFDF91CF910895FC0182A583
S1134F9093A5892B11F473A762A781E022A533A5F9
S1134FA02617370709F080E00895FC0122A533A5F0
S1134FB02617370711F413A612A608950F931F930B
S1134FC0CF93DF93EC018CE290E00E94B0338C012C
S1134FD0BE010AD119830883C8010CD689E390E085
S1134FE00E94B0338C01BE010E94CA041B830A8351
S1134FF0C8010E94050982E290E00E94B0338C014E
S1135000BE010E94A0151D830C83C8010E94641771
S113501086E290E00E94B0338C01BE010E94A51B81
S11350201F830E83C8010E94561E8CE190E00E94EB
S1135030B0338C01BE010E94B50919870887C801E5
S11350400E943D0A81E0DF91CF911F910F91089555
S1135050CF92EF92FF920F931F93CF93DF93EC01C4
S1135060162FACDF812F110F990BAA0BBB0BFC0180
S11350703296E730F10508F078C08827E355FF4FF2
S11350808F4F0C94933A85E59AE00E94EC32CE015E
S113509045DE26E040E855E260E070E085E59AE010
S11350A00E94893262C0C12CE12C0FEF1FEF20E077
S11350B030E042E050E06FEA78E08881998187D15E
S11350C0CE012CDE52C0CE01F7DCC12CE12C0FEF57
S11350D01FEF22E030E042E050E06FEA78E08881A0
S11350E0998175D18A819B811FC0C12CE12C0FEF5E
S11350F01FEF23E030E042E050E06FEA78E088817F
S1135100998165D18C819D810FC0C12CE12C0FEF59
S11351101FEF24E030E042E050E06FEA78E088815D
S1135120998155D18E819F81DC01ED91FC9102849E
S1135130F385E02DDF91CF911F910F91FF90EF90B8
S1135140CF9019948C819D810E944517F82EC12C13
S1135150E12C0FEF1FEF2FEF3FEF4FEF5FEF64EB0B
S113516078E08881998133D101C0F12C8F2DDF91B2
S1135170CF911F910F91FF90EF90CF900895FC0174
S1135180178E108E80E008950895CF93DF93EC017D
S113519041E060E0898D9A8D0E94300F898D9A8D4F
S11351A00E94B51282E08F8F188E80E0DF91CF913C
S11351B00895CF93DF93EC011A8E198E1C8E1B8EEB
S11351C01E8E1D8E19A218A21F8E1CA21DA21EA225
S11351D01FA21AA21BA20E94F63568A779A78AA764
S11351E09BA7DF91CF910895CF93DF93EC010E94A9
S11351F0791A85EE98E099838883CE01DF91CF9167
S1135200D8CFCF93DF93EC014FEF5FEF60E0898D50
S11352109A8D0E94080F4FEF5FEF61E0898D9A8DA0
S11352200E94080F4FEF5FEF62E0898D9A8D0E9414
S1135230080F4FEF5FEF63E0898D9A8D0E94080F8E
S113524040E260E0898D9A8D0E941E0F40E261E089
S1135250898D9A8D0E941E0F40E262E0898D9A8D9D
S11352600E941E0F40E263E0898D9A8D0E941E0FFA
S113527040E062E0898D9A8D0E94300F40E063E047
S1135280898D9A8DDF91CF910C94300FEF92FF921C
S11352900F931F93CF93DF9300D01F921F92CDB72C
S11352A0DEB7FC0171A360A3818D928D009709F490
S11352B082C07B018F016115710509F46AC0FB018D
S11352C02181243009F465C04585568560E00E943B
S11352D0080FF7014781508561E0F801818D928DB7
S11352E00E94080FF7014185528562E0F801818D23
S11352F0928D0E94080FF7014385548563E0F801FD
S1135300818D928D0E94080FB7016E5F7F4FCE0191
S113531001960E94CF3C498160E0F801818D928D15
S11353200E941E0F4A8161E0F801818D928D0E94D6
S11353301E0F4B8162E0F801818D928D0E941E0F39
S11353404C8163E0F801818D928D0E941E0FF7015C
S1135350478581E0482762E0F801818D928D0E94A3
S1135360300FF7014785442369F08181811109C019
S113537065857685F801848195810ADB41E004978F
S11353800CF040E063E0F801818D928D0E94300FB3
S113539002C0C80136DFF801818D928D0F900F9005
S11353A00F900F900F90DF91CF911F910F91FF906D
S11353B0EF900C94B5120F900F900F900F900F90E8
S11353C0DF91CF911F910F91FF90EF9008954F922D
S11353D05F926F927F928F929F92AF92BF92CF9281
S11353E0EF920F931F93CF93DF93EC015B013A018C
S11353F04901FB0101900020E9F731972F01461A7A
S1135400570A141415041CF4FB01408101C040E246
S113541060E0898D9A8D0E941E0FF2E04F165104B0
S11354201CF0F501418101C040E261E0898D9A8D53
S11354300E941E0FF3E04F1651041CF0F501428147
S113544001C040E262E0898D9A8D0E941E0FF4E053
S11354504F1651041CF0F501438101C040E263E0A2
S1135460898D9A8D0E941E0FA30161E0898D9A8D0A
S11354700E94080FA40162E0898D9A8D0E94080F92
S1135480A80163E0898D9A8D0E94080F4FEF5FEFAA
S113549060E0898D9A8D0E94080F4E2D60E0898D01
S11354A09A8D0E94300F4C2D61E0898D9A8D0E9457
S11354B0300F898D9A8DDF91CF911F910F91EF90CD
S11354C0CF90BF90AF909F908F907F906F905F90A0
S11354D04F900C94B512EF92FF920F931F93CF93BA
S11354E0DF9300D01F921F92CDB7DEB78C01DC0191
S11354F090968D919C919197892B09F4EBC160E072
S113550070E05D968D919C915E97C8D38130B9F41B
S1135510F80160A171A184819581C6D9BC01C8013B
S1135520B5DED8019096ED91FC919197458556850D
S113553060E059968D919C915A970E94080F61E002
S113554070E0F801858D968DA9D38130D9F4D80106
S113555090966D917C91919714968D919C9115974D
S1135560DDD9BC01C80192DED8019096ED91FC9181
S113557091974585568560E059968D919C915A97EF
S11355800E94080FD8019096ED91FC919197878520
S113559081115FC162E070E05D968D919C915E9790
S11355A07DD3813081F5F80180A191A10E943C1343
S11355B0D80190966D917C9191976E5F7F4FCE014B
S11355C001960E94CF3C498160E0F801818D928D63
S11355D00E941E0F4A8161E0D80159968D919C91D9
S11355E05A970E941E0F4B8162E0F801818D928DC3
S11355F00E941E0F4C8163E0D80159968D919C91B5
S11356005A970E941E0F63E070E0F801858D968D15
S113561045D3813081F5D80190968D919C919197D5
S11356200E944813F80160A171A16E5F7F4FCE0103
S113563001960E94CF3C498160E0D80159968D9132
S11356409C915A970E941E0F4A8161E0F801818D56
S1135650928D0E941E0F4B8162E0D80159968D9164
S11356609C915A970E941E0F4C8163E0F801818D32
S1135670928D0E941E0F64E070E0D8015D968D91BA
S11356809C915E970BD38130A1F4D8019096ED9153
S1135690FC919197478150854330510511F04F5F3C
S11356A05F4F5087478361E0F801818D928D0E949E
S11356B0080F65E070E0D8015D968D919C915E972E
S11356C0EDD28130A1F4D8019096ED91FC9191979F
S11356D0478150854115510511F0415051095087BA
S11356E0478361E0F801818D928D0E94080F66E086
S11356F070E0D8015D968D919C915E97CFD28130F8
S1135700A1F4D8019096ED91FC9191974185528531
S11357104330510511F04F5F5F4F5287418762E07C
S1135720F801818D928D0E94080F67E070E0D80126
S11357305D968D919C915E97B1D28130A1F4D80190
S11357409096ED91FC9191974185528541155105B3
S113575011F0415051095287418762E0F801818D6F
S1135760928D0E94080F68E070E0D8015D968D91DB
S11357709C915E9793D28130A1F4D8019096ED91DB
S1135780FC919197438554854330510511F04F5F47
S11357905F4F5487438763E0F801818D928D0E94A7
S11357A0080F69E070E0D8015D968D919C915E9739
S11357B075D28130A1F4D8019096ED91FC91919726
S11357C0438554854115510511F0415051095487C1
S11357D0438763E0F801818D928D0E94080F6AE08F
S11357E070E0D8015D968D919C915E9757D281307F
S11357F081F5D8019096ED91FC919197878740E0CF
S113580062E059968D919C915A970E94300F41E025
S113581063E0F801818D928D0E94300FD80190963B
S1135820ED91FC9191976585768514968D919C9167
S11358301597AED8D8019096ED91FC919197458536
S1135840568520E0BC0159968D919C915A970E94EF
S1135850F90E6BE070E0F801858D968D1FD28130D2
S1135860A1F5D8019096ED91FC9191976585768587
S113587014968D919C9115978BD87C010197039771
S113588020F5D8019096ED91FC919197178641E00F
S113589062E059968D919C915A970E94300F40E096
S11358A063E0F801818D928D0E94300FD8019096AB
S11358B0ED91FC9191974585568521E0B701599664
S11358C08D919C915A970E94F90EF801818D928DC9
S11358D00E94B512D8015D968D919C915E970F90B0
S11358E00F900F900F900F90DF91CF911F910F9118
S11358F0FF90EF90CAC1EF92FF920F931F93CF9343
S1135900DF93EC018B018C819D810E9400247C013A
S1135910898D9A8D0530110564F4F701118245854E
S1135920568521E0B8010E94F90EB701CE01AEDC24
S113593009C024E0F701218320E04DEF5FEFB801B7
S11359400E94F90E898D9A8DDF91CF911F910F914D
S1135950FF90EF900C94B5120F931F93CF93DF93A6
S1135960EC018B018C819D810E949C2320E04FEFF0
S11359705FEFB801898D9A8D0E94F90E8C819D810B
S11359800E943624BC01CE01DF91CF911F910F916B
S11359907DCC0F931F93CF93DF93EC018F8D8230D7
S11359A061F128F4882359F08130B1F079C0843052
S11359B009F452C068F1853009F45EC071C069EB26
S11359C078E085E59AE01BD7CE010E94BF1A8D8D41
S11359D09E8DC7D181E063C069EC78E085E59AE0EB
S11359E00ED78D8D9E8DDAD1882329F08D8D9E8DD5
S11359F04CD182E056C01F8E53C08AA1811106C0CB
S1135A008B8D9C8D0E94AF0A81E08BA383E047C0FD
S1135A108AA181111FC08BA18823E1F001E010E06D
S1135A20EB8DFC8DE00FF11F8089813019F4B801F2
S1135A30CE0161DFEB8DFC8DE00FF11F8089823098
S1135A4019F4B801CE0188DF0F5F1F4F0A3011052A
S1135A5039F71BA284E023C08D8D9E8D82D10E94D4
S1135A60F635DC01CB01C296A11DB11D8CA39DA30B
S1135A70AEA3BFA385E013C00E94F6350CA11DA1FF
S1135A802EA13FA1061717072807390748F48D8D63
S1135A909E8D84D18823F1F2CE011DDD82E08F8FAB
S1135AA080E0DF91CF911F910F910895CF92DF9203
S1135AB0EF92FF921F93CF93DF93EC01188D0E9416
S1135AC0F635C8A4D9A4EAA4FBA4C616D706E806EA
S1135AD0F90620F4898D9A8D009729F4888D8150D8
S1135AE0823040F425C00E94D81268A779A78AA7FB
S1135AF09BA7F4CFCE010E94D71A811104C0CE0116
S1135B0048DF182F14C060E074E085E59AE077D68A
S1135B10488959896A897B892AE030E085E59AE0D9
S1135B20E0D66AE37AE085E59AE069D611E0188F59
S1135B30812FDF91CF911F91FF90EF90DF90CF9055
S1135B40089521E0FC0122A308950F931F93CF939E
S1135B50DF93EC018B8D9C8D009711F00E94110B4B
S1135B6001E010E0B8018C819D810E942C24FC018D
S1135B70898D9A8D309799F03181343061F0278581
S1135B80222329F021E0333019F020E001C021E084
S1135B904585568507C020E04DEF5FEF03C020E048
S1135BA04FEF5FEFB8010E94F90E898D9A8D0E9424
S1135BB0B5120F5F1F4F0A301105A1F6E8A1F9A134
S1135BC0309791F0658576858C819D810E94C824EB
S1135BD0049724F4E8A1F9A1478501C040E063E0FB
S1135BE0898D9A8D0E94300F1AA2DF91CF911F9157
S1135BF00F9108950F931F93CF93DF93EC010E94AD
S1135C00931A87E390E0ACD58C016A817B810E9472
S1135C10DE0E1A8F098FC8010E94C1128AE190E03A
S1135C209FD58C016A817B810E94910A1C8F0B8F06
S1135C30C8010E949E0A8DE290E092D58C016A818F
S1135C407B8114D01E8F0D8FC8011DD081E0DF91A0
S1135C50CF911F910F910895FC01369642961192AF
S1135C601486118EE817F907D1F70895CF93DF93BF
S1135C70EC010E94D62285E29AE099838883CE01C2
S1135C80DF91CF91E9CFE8CF0895FC0173964F9649
S1135C9021912487E817F907D9F70895FC01E60F45
S1135CA0F71F838990A1891721F0811104C081E035
S1135CB0089580E0089582E008950F931F93CF9391
S1135CC0DF931F921F92CDB7DEB78B011A82198220
S1135CD0AE014F5F5F4FBE016E5F7F4FFC01848159
S1135CE095810E94971F0C30110598F5F8018827BB
